{
  "contractName": "ColdStorageContract",
  "abi": [
    {
      "constant": true,
      "inputs": [
        {
          "internalType": "uint256",
          "name": "",
          "type": "uint256"
        }
      ],
      "name": "coldStorageIDs",
      "outputs": [
        {
          "internalType": "uint256",
          "name": "",
          "type": "uint256"
        }
      ],
      "payable": false,
      "stateMutability": "view",
      "type": "function"
    },
    {
      "constant": true,
      "inputs": [
        {
          "internalType": "uint256",
          "name": "",
          "type": "uint256"
        }
      ],
      "name": "coldStorages",
      "outputs": [
        {
          "internalType": "string",
          "name": "ownerName",
          "type": "string"
        },
        {
          "internalType": "string",
          "name": "location",
          "type": "string"
        },
        {
          "internalType": "uint256",
          "name": "capacity",
          "type": "uint256"
        },
        {
          "internalType": "uint256",
          "name": "price",
          "type": "uint256"
        },
        {
          "internalType": "address",
          "name": "ownerAddress",
          "type": "address"
        }
      ],
      "payable": false,
      "stateMutability": "view",
      "type": "function"
    },
    {
      "constant": false,
      "inputs": [
        {
          "internalType": "uint256",
          "name": "_id",
          "type": "uint256"
        },
        {
          "internalType": "string",
          "name": "_ownerName",
          "type": "string"
        },
        {
          "internalType": "string",
          "name": "_location",
          "type": "string"
        },
        {
          "internalType": "uint256",
          "name": "_capacity",
          "type": "uint256"
        },
        {
          "internalType": "uint256",
          "name": "_price",
          "type": "uint256"
        },
        {
          "internalType": "address",
          "name": "_ownerAddress",
          "type": "address"
        }
      ],
      "name": "addColdStorage",
      "outputs": [],
      "payable": false,
      "stateMutability": "nonpayable",
      "type": "function"
    },
    {
      "constant": true,
      "inputs": [],
      "name": "getColdStorageIDs",
      "outputs": [
        {
          "internalType": "uint256[]",
          "name": "",
          "type": "uint256[]"
        }
      ],
      "payable": false,
      "stateMutability": "view",
      "type": "function"
    },
    {
      "constant": true,
      "inputs": [
        {
          "internalType": "uint256",
          "name": "_id",
          "type": "uint256"
        }
      ],
      "name": "getRequests",
      "outputs": [
        {
          "internalType": "address[]",
          "name": "",
          "type": "address[]"
        }
      ],
      "payable": false,
      "stateMutability": "view",
      "type": "function"
    },
    {
      "constant": true,
      "inputs": [
        {
          "internalType": "address",
          "name": "_address",
          "type": "address"
        }
      ],
      "name": "getCSrequested",
      "outputs": [
        {
          "internalType": "uint256[]",
          "name": "",
          "type": "uint256[]"
        }
      ],
      "payable": false,
      "stateMutability": "view",
      "type": "function"
    },
    {
      "constant": true,
      "inputs": [
        {
          "internalType": "address",
          "name": "_address",
          "type": "address"
        }
      ],
      "name": "getCSapproved",
      "outputs": [
        {
          "internalType": "uint256[]",
          "name": "",
          "type": "uint256[]"
        }
      ],
      "payable": false,
      "stateMutability": "view",
      "type": "function"
    },
    {
      "constant": true,
      "inputs": [
        {
          "internalType": "uint256",
          "name": "_id",
          "type": "uint256"
        }
      ],
      "name": "getColdStorage",
      "outputs": [
        {
          "internalType": "string",
          "name": "_ownerName",
          "type": "string"
        },
        {
          "internalType": "string",
          "name": "_location",
          "type": "string"
        },
        {
          "internalType": "uint256",
          "name": "_capacity",
          "type": "uint256"
        },
        {
          "internalType": "uint256",
          "name": "_price",
          "type": "uint256"
        },
        {
          "internalType": "address",
          "name": "_ownerAddress",
          "type": "address"
        }
      ],
      "payable": false,
      "stateMutability": "view",
      "type": "function"
    },
    {
      "constant": true,
      "inputs": [],
      "name": "countColdStorages",
      "outputs": [
        {
          "internalType": "uint256",
          "name": "",
          "type": "uint256"
        }
      ],
      "payable": false,
      "stateMutability": "view",
      "type": "function"
    },
    {
      "constant": false,
      "inputs": [
        {
          "internalType": "uint256",
          "name": "_id",
          "type": "uint256"
        }
      ],
      "name": "requestColdStorage",
      "outputs": [],
      "payable": false,
      "stateMutability": "nonpayable",
      "type": "function"
    },
    {
      "constant": false,
      "inputs": [
        {
          "internalType": "address",
          "name": "_address",
          "type": "address"
        },
        {
          "internalType": "uint256",
          "name": "_id",
          "type": "uint256"
        }
      ],
      "name": "removeRequest",
      "outputs": [],
      "payable": false,
      "stateMutability": "nonpayable",
      "type": "function"
    },
    {
      "constant": false,
      "inputs": [
        {
          "internalType": "address",
          "name": "_address",
          "type": "address"
        },
        {
          "internalType": "uint256",
          "name": "_id",
          "type": "uint256"
        }
      ],
      "name": "removeApprovedRequest",
      "outputs": [],
      "payable": false,
      "stateMutability": "nonpayable",
      "type": "function"
    },
    {
      "constant": false,
      "inputs": [
        {
          "internalType": "uint256",
          "name": "_id",
          "type": "uint256"
        },
        {
          "internalType": "address",
          "name": "_address",
          "type": "address"
        }
      ],
      "name": "approveColdStorage",
      "outputs": [],
      "payable": false,
      "stateMutability": "nonpayable",
      "type": "function"
    },
    {
      "constant": true,
      "inputs": [
        {
          "internalType": "uint256",
          "name": "_id",
          "type": "uint256"
        }
      ],
      "name": "getApprovedRequests",
      "outputs": [
        {
          "internalType": "address[]",
          "name": "",
          "type": "address[]"
        }
      ],
      "payable": false,
      "stateMutability": "view",
      "type": "function"
    },
    {
      "constant": false,
      "inputs": [
        {
          "internalType": "uint256",
          "name": "_id",
          "type": "uint256"
        }
      ],
      "name": "rentColdStorage",
      "outputs": [],
      "payable": false,
      "stateMutability": "nonpayable",
      "type": "function"
    },
    {
      "constant": true,
      "inputs": [
        {
          "internalType": "address",
          "name": "_address",
          "type": "address"
        }
      ],
      "name": "getRentedStorages",
      "outputs": [
        {
          "internalType": "uint256[]",
          "name": "",
          "type": "uint256[]"
        }
      ],
      "payable": false,
      "stateMutability": "view",
      "type": "function"
    },
    {
      "constant": true,
      "inputs": [
        {
          "internalType": "uint256",
          "name": "_id",
          "type": "uint256"
        }
      ],
      "name": "getTenants",
      "outputs": [
        {
          "internalType": "address[]",
          "name": "",
          "type": "address[]"
        }
      ],
      "payable": false,
      "stateMutability": "view",
      "type": "function"
    },
    {
      "constant": false,
      "inputs": [
        {
          "internalType": "uint256",
          "name": "_id",
          "type": "uint256"
        },
        {
          "internalType": "string",
          "name": "_itemName",
          "type": "string"
        },
        {
          "internalType": "uint256",
          "name": "_quantity",
          "type": "uint256"
        }
      ],
      "name": "addItem",
      "outputs": [],
      "payable": false,
      "stateMutability": "nonpayable",
      "type": "function"
    },
    {
      "constant": true,
      "inputs": [
        {
          "internalType": "uint256",
          "name": "_id",
          "type": "uint256"
        }
      ],
      "name": "getItemNames",
      "outputs": [
        {
          "internalType": "string[]",
          "name": "",
          "type": "string[]"
        }
      ],
      "payable": false,
      "stateMutability": "view",
      "type": "function"
    },
    {
      "constant": true,
      "inputs": [
        {
          "internalType": "uint256",
          "name": "_id",
          "type": "uint256"
        },
        {
          "internalType": "string",
          "name": "_itemName",
          "type": "string"
        }
      ],
      "name": "getItemQuantites",
      "outputs": [
        {
          "internalType": "uint256",
          "name": "",
          "type": "uint256"
        }
      ],
      "payable": false,
      "stateMutability": "view",
      "type": "function"
    }
  ],
  "bytecode": "0x608060405234801561001057600080fd5b506123d2806100206000396000f3fe608060405234801561001057600080fd5b506004361061012c5760003560e01c80639f0d18b7116100ad578063d5e7882911610071578063d5e7882914610369578063e22dbe8814610399578063f13b2124146103c9578063f61ca65a146103f9578063fe32ea571461042d5761012c565b80639f0d18b71461029d578063b776fc15146102cd578063c06af338146102e9578063cb3e8e8c14610305578063ccd72cb6146103355761012c565b806344e13589116100f457806344e13589146101fb57806345b3ce44146102175780636b7742f51461023357806397fe48571461024f5780639b9652ca1461026d5761012c565b806304d6cb29146101315780630e64584e1461016157806311619c941461017d5780631cd9e2071461019b5780632e007551146101cb575b600080fd5b61014b60048036036101469190810190611bcb565b610449565b6040516101589190612048565b60405180910390f35b61017b60048036036101769190810190611b8f565b610559565b005b610185610796565b6040516101929190612170565b60405180910390f35b6101b560048036036101b09190810190611b66565b6107a3565b6040516101c2919061208c565b60405180910390f35b6101e560048036036101e09190810190611b66565b61092a565b6040516101f2919061208c565b60405180910390f35b61021560048036036102109190810190611bf4565b610ab1565b005b610231600480360361022c9190810190611bcb565b610ba5565b005b61024d60048036036102489190810190611c84565b610cc3565b005b610257610d9f565b604051610264919061208c565b60405180910390f35b61028760048036036102829190810190611c30565b610df7565b6040516102949190612170565b60405180910390f35b6102b760048036036102b29190810190611bcb565b610e33565b6040516102c49190612170565b60405180910390f35b6102e760048036036102e29190810190611d3d565b610e54565b005b61030360048036036102fe9190810190611b8f565b610ee1565b005b61031f600480360361031a9190810190611bcb565b61111e565b60405161032c9190612048565b60405180910390f35b61034f600480360361034a9190810190611bcb565b61122e565b6040516103609594939291906120ae565b60405180910390f35b610383600480360361037e9190810190611bcb565b61140d565b6040516103909190612048565b60405180910390f35b6103b360048036036103ae9190810190611b66565b61151d565b6040516103c0919061208c565b60405180910390f35b6103e360048036036103de9190810190611bcb565b6116a4565b6040516103f0919061206a565b60405180910390f35b610413600480360361040e9190810190611bcb565b6117a2565b60405161042495949392919061210f565b60405180910390f35b61044760048036036104429190810190611bcb565b611928565b005b606060008083815260200190815260200160002060040160009054906101000a900473ffffffffffffffffffffffffffffffffffffffff1673ffffffffffffffffffffffffffffffffffffffff163373ffffffffffffffffffffffffffffffffffffffff16146104b857600080fd5b60008083815260200190815260200160002060060180548060200260200160405190810160405280929190818152602001828054801561054d57602002820191906000526020600020905b8160009054906101000a900473ffffffffffffffffffffffffffffffffffffffff1673ffffffffffffffffffffffffffffffffffffffff1681526020019060010190808311610503575b50505050509050919050565b600080600083815260200190815260200160002060060190506000809050600080905060008090505b8380549050811015610611578573ffffffffffffffffffffffffffffffffffffffff168482815481106105b157fe5b9060005260206000200160009054906101000a900473ffffffffffffffffffffffffffffffffffffffff1673ffffffffffffffffffffffffffffffffffffffff1614156106045760019250809150610611565b8080600101915050610582565b5081156107865760008190505b60018480549050038110156106c85783600182018154811061063c57fe5b9060005260206000200160009054906101000a900473ffffffffffffffffffffffffffffffffffffffff1684828154811061067357fe5b9060005260206000200160006101000a81548173ffffffffffffffffffffffffffffffffffffffff021916908373ffffffffffffffffffffffffffffffffffffffff160217905550808060010191505061061e565b50826001848054905003815481106106dc57fe5b9060005260206000200160006101000a81549073ffffffffffffffffffffffffffffffffffffffff02191690558260008086815260200190815260200160002060060190805461072d9291906119ae565b5060008085815260200190815260200160002060060180548061074c57fe5b6001900381819060005260206000200160006101000a81549073ffffffffffffffffffffffffffffffffffffffff0219169055905561078e565b505050610792565b5050505b5050565b6000600180549050905090565b6060806001805490506040519080825280602002602001820160405280156107da5781602001602082028038833980820191505090505b509050600080905060008090505b60018054905081101561091f5760008090505b6000806001848154811061080b57fe5b9060005260206000200154815260200190815260200160002060050180549050811015610911578573ffffffffffffffffffffffffffffffffffffffff166000806001858154811061085957fe5b90600052602060002001548152602001908152602001600020600501828154811061088057fe5b9060005260206000200160009054906101000a900473ffffffffffffffffffffffffffffffffffffffff1673ffffffffffffffffffffffffffffffffffffffff16141561090457600182815481106108d457fe5b90600052602060002001548484815181106108eb57fe5b6020026020010181815250508280600101935050610911565b80806001019150506107fb565b5080806001019150506107e8565b508192505050919050565b6060806001805490506040519080825280602002602001820160405280156109615781602001602082028038833980820191505090505b509050600080905060008090505b600180549050811015610aa65760008090505b6000806001848154811061099257fe5b9060005260206000200154815260200190815260200160002060060180549050811015610a98578573ffffffffffffffffffffffffffffffffffffffff16600080600185815481106109e057fe5b906000526020600020015481526020019081526020016000206006018281548110610a0757fe5b9060005260206000200160009054906101000a900473ffffffffffffffffffffffffffffffffffffffff1673ffffffffffffffffffffffffffffffffffffffff161415610a8b5760018281548110610a5b57fe5b9060005260206000200154848481518110610a7257fe5b6020026020010181815250508280600101935050610a98565b8080600101915050610982565b50808060010191505061096f565b508192505050919050565b60008083815260200190815260200160002060040160009054906101000a900473ffffffffffffffffffffffffffffffffffffffff1673ffffffffffffffffffffffffffffffffffffffff163373ffffffffffffffffffffffffffffffffffffffff1614610b1e57600080fd5b6000808381526020019081526020016000206006018190806001815401808255809150509060018203906000526020600020016000909192909190916101000a81548173ffffffffffffffffffffffffffffffffffffffff021916908373ffffffffffffffffffffffffffffffffffffffff16021790555050610ba18183610ee1565b5050565b60008082815260200190815260200160002060040160009054906101000a900473ffffffffffffffffffffffffffffffffffffffff1673ffffffffffffffffffffffffffffffffffffffff163373ffffffffffffffffffffffffffffffffffffffff161415610c1357600080fd5b600080828152602001908152602001600020600301543373ffffffffffffffffffffffffffffffffffffffff163110610cc0576000808281526020019081526020016000206005013390806001815401808255809150509060018203906000526020600020016000909192909190916101000a81548173ffffffffffffffffffffffffffffffffffffffff021916908373ffffffffffffffffffffffffffffffffffffffff160217905550505b50565b6000806000888152602001908152602001600020905085816000019080519060200190610cf1929190611a00565b5084816001019080519060200190610d0a929190611a00565b50838160020181905550670de0b6b3a764000083028160030181905550818160040160006101000a81548173ffffffffffffffffffffffffffffffffffffffff021916908373ffffffffffffffffffffffffffffffffffffffff160217905550600187908060018154018082558091505090600182039060005260206000200160009091929091909150555050505050505050565b60606001805480602002602001604051908101604052809291908181526020018280548015610ded57602002820191906000526020600020905b815481526020019060010190808311610dd9575b5050505050905090565b600080600084815260200190815260200160002060080182604051610e1c9190612031565b908152602001604051809103902054905092915050565b60018181548110610e4057fe5b906000526020600020016000915090505481565b8060008085815260200190815260200160002060080183604051610e789190612031565b908152602001604051809103902081905550600080848152602001908152602001600020600901829080600181540180825580915050906001820390600052602060002001600090919290919091509080519060200190610eda929190611a00565b5050505050565b600080600083815260200190815260200160002060050190506000809050600080905060008090505b8380549050811015610f99578573ffffffffffffffffffffffffffffffffffffffff16848281548110610f3957fe5b9060005260206000200160009054906101000a900473ffffffffffffffffffffffffffffffffffffffff1673ffffffffffffffffffffffffffffffffffffffff161415610f8c5760019250809150610f99565b8080600101915050610f0a565b50811561110e5760008190505b600184805490500381101561105057836001820181548110610fc457fe5b9060005260206000200160009054906101000a900473ffffffffffffffffffffffffffffffffffffffff16848281548110610ffb57fe5b9060005260206000200160006101000a81548173ffffffffffffffffffffffffffffffffffffffff021916908373ffffffffffffffffffffffffffffffffffffffff1602179055508080600101915050610fa6565b508260018480549050038154811061106457fe5b9060005260206000200160006101000a81549073ffffffffffffffffffffffffffffffffffffffff0219169055826000808681526020019081526020016000206005019080546110b59291906119ae565b506000808581526020019081526020016000206005018054806110d457fe5b6001900381819060005260206000200160006101000a81549073ffffffffffffffffffffffffffffffffffffffff02191690559055611116565b50505061111a565b5050505b5050565b606060008083815260200190815260200160002060040160009054906101000a900473ffffffffffffffffffffffffffffffffffffffff1673ffffffffffffffffffffffffffffffffffffffff163373ffffffffffffffffffffffffffffffffffffffff161461118d57600080fd5b60008083815260200190815260200160002060070180548060200260200160405190810160405280929190818152602001828054801561122257602002820191906000526020600020905b8160009054906101000a900473ffffffffffffffffffffffffffffffffffffffff1673ffffffffffffffffffffffffffffffffffffffff16815260200190600101908083116111d8575b50505050509050919050565b6060806000806000806000878152602001908152602001600020600001600080888152602001908152602001600020600101600080898152602001908152602001600020600201546000808a8152602001908152602001600020600301546000808b815260200190815260200160002060040160009054906101000a900473ffffffffffffffffffffffffffffffffffffffff16848054600181600116156101000203166002900480601f0160208091040260200160405190810160405280929190818152602001828054600181600116156101000203166002900480156113575780601f1061132c57610100808354040283529160200191611357565b820191906000526020600020905b81548152906001019060200180831161133a57829003601f168201915b50505050509450838054600181600116156101000203166002900480601f0160208091040260200160405190810160405280929190818152602001828054600181600116156101000203166002900480156113f35780601f106113c8576101008083540402835291602001916113f3565b820191906000526020600020905b8154815290600101906020018083116113d657829003601f168201915b505050505093509450945094509450945091939590929450565b606060008083815260200190815260200160002060040160009054906101000a900473ffffffffffffffffffffffffffffffffffffffff1673ffffffffffffffffffffffffffffffffffffffff163373ffffffffffffffffffffffffffffffffffffffff161461147c57600080fd5b60008083815260200190815260200160002060050180548060200260200160405190810160405280929190818152602001828054801561151157602002820191906000526020600020905b8160009054906101000a900473ffffffffffffffffffffffffffffffffffffffff1673ffffffffffffffffffffffffffffffffffffffff16815260200190600101908083116114c7575b50505050509050919050565b6060806001805490506040519080825280602002602001820160405280156115545781602001602082028038833980820191505090505b509050600080905060008090505b6001805490508110156116995760008090505b6000806001848154811061158557fe5b906000526020600020015481526020019081526020016000206007018054905081101561168b578573ffffffffffffffffffffffffffffffffffffffff16600080600185815481106115d357fe5b9060005260206000200154815260200190815260200160002060070182815481106115fa57fe5b9060005260206000200160009054906101000a900473ffffffffffffffffffffffffffffffffffffffff1673ffffffffffffffffffffffffffffffffffffffff16141561167e576001828154811061164e57fe5b906000526020600020015484848151811061166557fe5b602002602001018181525050828060010193505061168b565b8080600101915050611575565b508080600101915050611562565b508192505050919050565b6060600080838152602001908152602001600020600901805480602002602001604051908101604052809291908181526020016000905b82821015611797578382906000526020600020018054600181600116156101000203166002900480601f0160208091040260200160405190810160405280929190818152602001828054600181600116156101000203166002900480156117835780601f1061175857610100808354040283529160200191611783565b820191906000526020600020905b81548152906001019060200180831161176657829003601f168201915b5050505050815260200190600101906116db565b505050509050919050565b6000602052806000526040600020600091509050806000018054600181600116156101000203166002900480601f01602080910402602001604051908101604052809291908181526020018280546001816001161561010002031660029004801561184e5780601f106118235761010080835404028352916020019161184e565b820191906000526020600020905b81548152906001019060200180831161183157829003601f168201915b505050505090806001018054600181600116156101000203166002900480601f0160208091040260200160405190810160405280929190818152602001828054600181600116156101000203166002900480156118ec5780601f106118c1576101008083540402835291602001916118ec565b820191906000526020600020905b8154815290600101906020018083116118cf57829003601f168201915b5050505050908060020154908060030154908060040160009054906101000a900473ffffffffffffffffffffffffffffffffffffffff16905085565b6000808281526020019081526020016000206007013390806001815401808255809150509060018203906000526020600020016000909192909190916101000a81548173ffffffffffffffffffffffffffffffffffffffff021916908373ffffffffffffffffffffffffffffffffffffffff160217905550506119ab3382610559565b50565b8280548282559060005260206000209081019282156119ef5760005260206000209182015b828111156119ee5782548255916001019190600101906119d3565b5b5090506119fc9190611a80565b5090565b828054600181600116156101000203166002900490600052602060002090601f016020900481019282601f10611a4157805160ff1916838001178555611a6f565b82800160010185558215611a6f579182015b82811115611a6e578251825591602001919060010190611a53565b5b509050611a7c9190611ac3565b5090565b611ac091905b80821115611abc57600081816101000a81549073ffffffffffffffffffffffffffffffffffffffff021916905550600101611a86565b5090565b90565b611ae591905b80821115611ae1576000816000905550600101611ac9565b5090565b90565b600081359050611af781612361565b92915050565b600082601f830112611b0e57600080fd5b8135611b21611b1c826121b8565b61218b565b91508082526020830160208301858383011115611b3d57600080fd5b611b4883828461230e565b50505092915050565b600081359050611b6081612378565b92915050565b600060208284031215611b7857600080fd5b6000611b8684828501611ae8565b91505092915050565b60008060408385031215611ba257600080fd5b6000611bb085828601611ae8565b9250506020611bc185828601611b51565b9150509250929050565b600060208284031215611bdd57600080fd5b6000611beb84828501611b51565b91505092915050565b60008060408385031215611c0757600080fd5b6000611c1585828601611b51565b9250506020611c2685828601611ae8565b9150509250929050565b60008060408385031215611c4357600080fd5b6000611c5185828601611b51565b925050602083013567ffffffffffffffff811115611c6e57600080fd5b611c7a85828601611afd565b9150509250929050565b60008060008060008060c08789031215611c9d57600080fd5b6000611cab89828a01611b51565b965050602087013567ffffffffffffffff811115611cc857600080fd5b611cd489828a01611afd565b955050604087013567ffffffffffffffff811115611cf157600080fd5b611cfd89828a01611afd565b9450506060611d0e89828a01611b51565b9350506080611d1f89828a01611b51565b92505060a0611d3089828a01611ae8565b9150509295509295509295565b600080600060608486031215611d5257600080fd5b6000611d6086828701611b51565b935050602084013567ffffffffffffffff811115611d7d57600080fd5b611d8986828701611afd565b9250506040611d9a86828701611b51565b9150509250925092565b6000611db08383611de8565b60208301905092915050565b6000611dc88383611fa1565b905092915050565b6000611ddc8383612013565b60208301905092915050565b611df1816122d2565b82525050565b611e00816122d2565b82525050565b6000611e1182612214565b611e1b8185612272565b9350611e26836121e4565b8060005b83811015611e57578151611e3e8882611da4565b9750611e498361224b565b925050600181019050611e2a565b5085935050505092915050565b6000611e6f8261221f565b611e798185612283565b935083602082028501611e8b856121f4565b8060005b85811015611ec75784840389528151611ea88582611dbc565b9450611eb383612258565b925060208a01995050600181019050611e8f565b50829750879550505050505092915050565b6000611ee48261222a565b611eee8185612294565b9350611ef983612204565b8060005b83811015611f2a578151611f118882611dd0565b9750611f1c83612265565b925050600181019050611efd565b5085935050505092915050565b6000611f4282612240565b611f4c81856122b6565b9350611f5c81856020860161231d565b611f6581612350565b840191505092915050565b6000611f7b82612240565b611f8581856122c7565b9350611f9581856020860161231d565b80840191505092915050565b6000611fac82612235565b611fb681856122a5565b9350611fc681856020860161231d565b611fcf81612350565b840191505092915050565b6000611fe582612235565b611fef81856122b6565b9350611fff81856020860161231d565b61200881612350565b840191505092915050565b61201c81612304565b82525050565b61202b81612304565b82525050565b600061203d8284611f70565b915081905092915050565b600060208201905081810360008301526120628184611e06565b905092915050565b600060208201905081810360008301526120848184611e64565b905092915050565b600060208201905081810360008301526120a68184611ed9565b905092915050565b600060a08201905081810360008301526120c88188611f37565b905081810360208301526120dc8187611f37565b90506120eb6040830186612022565b6120f86060830185612022565b6121056080830184611df7565b9695505050505050565b600060a08201905081810360008301526121298188611fda565b9050818103602083015261213d8187611fda565b905061214c6040830186612022565b6121596060830185612022565b6121666080830184611df7565b9695505050505050565b60006020820190506121856000830184612022565b92915050565b6000604051905081810181811067ffffffffffffffff821117156121ae57600080fd5b8060405250919050565b600067ffffffffffffffff8211156121cf57600080fd5b601f19601f8301169050602081019050919050565b6000819050602082019050919050565b6000819050602082019050919050565b6000819050602082019050919050565b600081519050919050565b600081519050919050565b600081519050919050565b600081519050919050565b600081519050919050565b6000602082019050919050565b6000602082019050919050565b6000602082019050919050565b600082825260208201905092915050565b600082825260208201905092915050565b600082825260208201905092915050565b600082825260208201905092915050565b600082825260208201905092915050565b600081905092915050565b60006122dd826122e4565b9050919050565b600073ffffffffffffffffffffffffffffffffffffffff82169050919050565b6000819050919050565b82818337600083830152505050565b60005b8381101561233b578082015181840152602081019050612320565b8381111561234a576000848401525b50505050565b6000601f19601f8301169050919050565b61236a816122d2565b811461237557600080fd5b50565b61238181612304565b811461238c57600080fd5b5056fea365627a7a72315820c887d73d2cbb32be89567211b1da4c475a302cba36a3ebf472f53ff69f878dfb6c6578706572696d656e74616cf564736f6c63430005100040",
  "source": "// SPDX-License-Identifier: GPL-3.0\npragma solidity >=0.4.21;\npragma experimental ABIEncoderV2;\n\ncontract ColdStorageContract {\n    struct ColdStorage {\n        string ownerName;\n        string location;\n        uint256 capacity;\n        uint256 price;\n        address ownerAddress;\n        address[] requests;\n        address[] approvedRequests;\n        address[] tenants;\n        mapping(string => uint256) items;\n        string[] itemNames;\n    }\n\n    mapping(uint256 => ColdStorage) public coldStorages;\n    uint256[] public coldStorageIDs;\n\n    function addColdStorage(\n        uint256 _id,\n        string memory _ownerName,\n        string memory _location,\n        uint256 _capacity,\n        uint256 _price,\n        address _ownerAddress\n    ) public {\n        ColdStorage storage coldStorage = coldStorages[_id];\n        coldStorage.ownerName = _ownerName;\n        coldStorage.location = _location;\n        coldStorage.capacity = _capacity;\n        coldStorage.price = _price * 10**18;\n        coldStorage.ownerAddress = _ownerAddress;\n        coldStorageIDs.push(_id);\n    }\n\n    function getColdStorageIDs() public view returns (uint256[] memory) {\n        return coldStorageIDs;\n    }\n\n    function getRequests(uint256 _id) public view returns (address[] memory) {\n        require(msg.sender == coldStorages[_id].ownerAddress);\n\n        return coldStorages[_id].requests;\n    }\n\n    function getCSrequested(address _address)\n        public\n        view\n        returns (uint256[] memory)\n    {\n        uint256[] memory CSIDs = new uint256[](coldStorageIDs.length);\n        uint256 pointer = 0;\n        //loop to traverse through cold storages\n        for (uint256 i = 0; i < coldStorageIDs.length; i++) {\n            for (\n                uint256 j = 0;\n                j < coldStorages[coldStorageIDs[i]].requests.length;\n                j++\n            ) {\n                if (coldStorages[coldStorageIDs[i]].requests[j] == _address) {\n                    CSIDs[pointer] = coldStorageIDs[i];\n                    pointer++;\n                    break;\n                }\n            }\n        }\n        return CSIDs;\n    }\n\n    function getCSapproved(address _address)\n        public\n        view\n        returns (uint256[] memory)\n    {\n        uint256[] memory CSIDs = new uint256[](coldStorageIDs.length);\n        uint256 pointer = 0;\n        //loop to traverse through cold storages\n        for (uint256 i = 0; i < coldStorageIDs.length; i++) {\n            for (\n                uint256 j = 0;\n                j < coldStorages[coldStorageIDs[i]].approvedRequests.length;\n                j++\n            ) {\n                if (\n                    coldStorages[coldStorageIDs[i]].approvedRequests[j] ==\n                    _address\n                ) {\n                    CSIDs[pointer] = coldStorageIDs[i];\n                    pointer++;\n                    break;\n                }\n            }\n        }\n        return CSIDs;\n    }\n\n    function getColdStorage(uint256 _id)\n        public\n        view\n        returns (\n            string memory _ownerName,\n            string memory _location,\n            uint256 _capacity,\n            uint256 _price,\n            address _ownerAddress\n        )\n    {\n        return (\n            coldStorages[_id].ownerName,\n            coldStorages[_id].location,\n            coldStorages[_id].capacity,\n            coldStorages[_id].price,\n            coldStorages[_id].ownerAddress\n        );\n    }\n\n    function countColdStorages() public view returns (uint256) {\n        return coldStorageIDs.length;\n    }\n\n    function requestColdStorage(uint256 _id) public {\n        //owner can't buy their own storage\n        require(msg.sender != coldStorages[_id].ownerAddress);\n\n        if (address(msg.sender).balance >= coldStorages[_id].price) {\n            coldStorages[_id].requests.push(address(msg.sender));\n        }\n    }\n\n    function removeRequest(address _address, uint256 _id) public {\n        address[] storage reqs = coldStorages[_id].requests;\n\n        bool isPresent = false;\n        uint256 reqIndex = 0;\n\n        for (uint256 i = 0; i < reqs.length; i++) {\n            if (reqs[i] == _address) {\n                isPresent = true;\n                reqIndex = i;\n                break;\n            }\n        }\n\n        if (isPresent) {\n            for (uint256 i = reqIndex; i < reqs.length - 1; i++) {\n                reqs[i] = reqs[i + 1];\n            }\n\n            delete reqs[reqs.length - 1];\n            coldStorages[_id].requests = reqs;\n            coldStorages[_id].requests.pop();\n        } else return;\n    }\n\n    function removeApprovedRequest(address _address, uint256 _id) public {\n        address[] storage appReqs = coldStorages[_id].approvedRequests;\n\n        bool isPresent = false;\n        uint256 reqIndex = 0;\n\n        for (uint256 i = 0; i < appReqs.length; i++) {\n            if (appReqs[i] == _address) {\n                isPresent = true;\n                reqIndex = i;\n                break;\n            }\n        }\n\n        if (isPresent) {\n            for (uint256 i = reqIndex; i < appReqs.length - 1; i++) {\n                appReqs[i] = appReqs[i + 1];\n            }\n\n            delete appReqs[appReqs.length - 1];\n            coldStorages[_id].approvedRequests = appReqs;\n            coldStorages[_id].approvedRequests.pop();\n        } else return;\n    }\n\n    function approveColdStorage(uint256 _id, address _address) public {\n        require(msg.sender == coldStorages[_id].ownerAddress);\n\n        coldStorages[_id].approvedRequests.push(_address);\n        removeRequest(_address, _id);\n    }\n\n    function getApprovedRequests(uint256 _id)\n        public\n        view\n        returns (address[] memory)\n    {\n        require(msg.sender == coldStorages[_id].ownerAddress);\n\n        return coldStorages[_id].approvedRequests;\n    }\n\n    function rentColdStorage(uint256 _id) public {\n        coldStorages[_id].tenants.push(msg.sender);\n        removeApprovedRequest(msg.sender, _id);\n    }\n\n    function getRentedStorages(address _address)\n        public\n        view\n        returns (uint256[] memory)\n    {\n        uint256[] memory rentedIDs = new uint256[](coldStorageIDs.length);\n        uint256 pointer = 0;\n        for (uint256 i = 0; i < coldStorageIDs.length; i++) {\n            for (\n                uint256 j = 0;\n                j < coldStorages[coldStorageIDs[i]].tenants.length;\n                j++\n            ) {\n                if (coldStorages[coldStorageIDs[i]].tenants[j] == _address) {\n                    rentedIDs[pointer] = coldStorageIDs[i];\n                    pointer++;\n                    break;\n                }\n            }\n        }\n        return rentedIDs;\n    }\n\n    function getTenants(uint256 _id) public view returns (address[] memory) {\n        require(msg.sender == coldStorages[_id].ownerAddress);\n        return coldStorages[_id].tenants;\n    }\n\n    //function to add new item to cold storage\n    function addItem(\n        uint256 _id,\n        string memory _itemName,\n        uint256 _quantity\n    ) public {\n        coldStorages[_id].items[_itemName] = _quantity;\n        coldStorages[_id].itemNames.push(_itemName);\n    }\n\n    //function to view items\n    function getItemNames(uint256 _id) public view returns (string[] memory) {\n        return coldStorages[_id].itemNames;\n    }\n\n    function getItemQuantites(uint256 _id, string memory _itemName)\n        public\n        view\n        returns (uint256)\n    {\n        return coldStorages[_id].items[_itemName];\n    }\n\n    //function to get quantities of items\n}\n",
  "sourcePath": "D:/React Apps/farmers-incentive-dapp/contracts/ColdStorageContract.sol",
  "compiler": {
    "name": "solc",
    "version": "0.5.16+commit.9c3226ce.Emscripten.clang"
  },
  "schemaVersion": "3.3.3",
  "updatedAt": "2021-06-14T18:10:24.052Z",
  "networkType": "ethereum",
  "devdoc": {
    "methods": {}
  },
  "userdoc": {
    "methods": {}
  }
}