{
  "contractName": "ColdStorageContract",
  "abi": [
    {
      "constant": true,
      "inputs": [
        {
          "internalType": "uint256",
          "name": "",
          "type": "uint256"
        }
      ],
      "name": "coldStorageIDs",
      "outputs": [
        {
          "internalType": "uint256",
          "name": "",
          "type": "uint256"
        }
      ],
      "payable": false,
      "stateMutability": "view",
      "type": "function"
    },
    {
      "constant": true,
      "inputs": [
        {
          "internalType": "uint256",
          "name": "",
          "type": "uint256"
        }
      ],
      "name": "coldStorages",
      "outputs": [
        {
          "internalType": "string",
          "name": "ownerName",
          "type": "string"
        },
        {
          "internalType": "string",
          "name": "location",
          "type": "string"
        },
        {
          "internalType": "uint256",
          "name": "capacity",
          "type": "uint256"
        },
        {
          "internalType": "address",
          "name": "ownerAddress",
          "type": "address"
        }
      ],
      "payable": false,
      "stateMutability": "view",
      "type": "function"
    },
    {
      "constant": false,
      "inputs": [
        {
          "internalType": "uint256",
          "name": "_id",
          "type": "uint256"
        },
        {
          "internalType": "string",
          "name": "_ownerName",
          "type": "string"
        },
        {
          "internalType": "string",
          "name": "_location",
          "type": "string"
        },
        {
          "internalType": "uint256",
          "name": "_capacity",
          "type": "uint256"
        },
        {
          "internalType": "address",
          "name": "_ownerAddress",
          "type": "address"
        }
      ],
      "name": "addColdStorage",
      "outputs": [],
      "payable": false,
      "stateMutability": "nonpayable",
      "type": "function"
    },
    {
      "constant": true,
      "inputs": [],
      "name": "getColdStorageIDs",
      "outputs": [
        {
          "internalType": "uint256[]",
          "name": "",
          "type": "uint256[]"
        }
      ],
      "payable": false,
      "stateMutability": "view",
      "type": "function"
    },
    {
      "constant": true,
      "inputs": [
        {
          "internalType": "uint256",
          "name": "_id",
          "type": "uint256"
        }
      ],
      "name": "getColdStorage",
      "outputs": [
        {
          "internalType": "string",
          "name": "_ownerName",
          "type": "string"
        },
        {
          "internalType": "string",
          "name": "_location",
          "type": "string"
        },
        {
          "internalType": "uint256",
          "name": "_capacity",
          "type": "uint256"
        },
        {
          "internalType": "address",
          "name": "_ownerAddress",
          "type": "address"
        }
      ],
      "payable": false,
      "stateMutability": "view",
      "type": "function"
    },
    {
      "constant": true,
      "inputs": [],
      "name": "countColdStorages",
      "outputs": [
        {
          "internalType": "uint256",
          "name": "",
          "type": "uint256"
        }
      ],
      "payable": false,
      "stateMutability": "view",
      "type": "function"
    }
  ],
  "bytecode": "0x608060405234801561001057600080fd5b50610a85806100206000396000f3fe608060405234801561001057600080fd5b50600436106100625760003560e01c80630dc5e89e1461006757806311619c94146101ed57806397fe48571461020b5780639f0d18b71461026a578063ccd72cb6146102ac578063f61ca65a146103f9575b600080fd5b6101eb600480360360a081101561007d57600080fd5b8101908080359060200190929190803590602001906401000000008111156100a457600080fd5b8201836020820111156100b657600080fd5b803590602001918460018302840111640100000000831117156100d857600080fd5b91908080601f016020809104026020016040519081016040528093929190818152602001838380828437600081840152601f19601f8201169050808301925050505050505091929192908035906020019064010000000081111561013b57600080fd5b82018360208201111561014d57600080fd5b8035906020019184600183028401116401000000008311171561016f57600080fd5b91908080601f016020809104026020016040519081016040528093929190818152602001838380828437600081840152601f19601f82011690508083019250505050505050919291929080359060200190929190803573ffffffffffffffffffffffffffffffffffffffff169060200190929190505050610546565b005b6101f56105e2565b6040518082815260200191505060405180910390f35b6102136105ef565b6040518080602001828103825283818151815260200191508051906020019060200280838360005b8381101561025657808201518184015260208101905061023b565b505050509050019250505060405180910390f35b6102966004803603602081101561028057600080fd5b8101908080359060200190929190505050610647565b6040518082815260200191505060405180910390f35b6102d8600480360360208110156102c257600080fd5b8101908080359060200190929190505050610668565b6040518080602001806020018581526020018473ffffffffffffffffffffffffffffffffffffffff1673ffffffffffffffffffffffffffffffffffffffff168152602001838103835287818151815260200191508051906020019080838360005b83811015610354578082015181840152602081019050610339565b50505050905090810190601f1680156103815780820380516001836020036101000a031916815260200191505b50838103825286818151815260200191508051906020019080838360005b838110156103ba57808201518184015260208101905061039f565b50505050905090810190601f1680156103e75780820380516001836020036101000a031916815260200191505b50965050505050505060405180910390f35b6104256004803603602081101561040f57600080fd5b810190808035906020019092919050505061082b565b6040518080602001806020018581526020018473ffffffffffffffffffffffffffffffffffffffff1673ffffffffffffffffffffffffffffffffffffffff168152602001838103835287818151815260200191508051906020019080838360005b838110156104a1578082015181840152602081019050610486565b50505050905090810190601f1680156104ce5780820380516001836020036101000a031916815260200191505b50838103825286818151815260200191508051906020019080838360005b838110156105075780820151818401526020810190506104ec565b50505050905090810190601f1680156105345780820380516001836020036101000a031916815260200191505b50965050505050505060405180910390f35b60008060008781526020019081526020016000209050848160000190805190602001906105749291906109ab565b508381600101908051906020019061058d9291906109ab565b50828160020181905550818160030160006101000a81548173ffffffffffffffffffffffffffffffffffffffff021916908373ffffffffffffffffffffffffffffffffffffffff160217905550505050505050565b6000600180549050905090565b6060600180548060200260200160405190810160405280929190818152602001828054801561063d57602002820191906000526020600020905b815481526020019060010190808311610629575b5050505050905090565b6001818154811061065457fe5b906000526020600020016000915090505481565b6060806000806000808681526020019081526020016000206000016000808781526020019081526020016000206001016000808881526020019081526020016000206002015460008089815260200190815260200160002060030160009054906101000a900473ffffffffffffffffffffffffffffffffffffffff16838054600181600116156101000203166002900480601f0160208091040260200160405190810160405280929190818152602001828054600181600116156101000203166002900480156107795780601f1061074e57610100808354040283529160200191610779565b820191906000526020600020905b81548152906001019060200180831161075c57829003601f168201915b50505050509350828054600181600116156101000203166002900480601f0160208091040260200160405190810160405280929190818152602001828054600181600116156101000203166002900480156108155780601f106107ea57610100808354040283529160200191610815565b820191906000526020600020905b8154815290600101906020018083116107f857829003601f168201915b5050505050925093509350935093509193509193565b6000602052806000526040600020600091509050806000018054600181600116156101000203166002900480601f0160208091040260200160405190810160405280929190818152602001828054600181600116156101000203166002900480156108d75780601f106108ac576101008083540402835291602001916108d7565b820191906000526020600020905b8154815290600101906020018083116108ba57829003601f168201915b505050505090806001018054600181600116156101000203166002900480601f0160208091040260200160405190810160405280929190818152602001828054600181600116156101000203166002900480156109755780601f1061094a57610100808354040283529160200191610975565b820191906000526020600020905b81548152906001019060200180831161095857829003601f168201915b5050505050908060020154908060030160009054906101000a900473ffffffffffffffffffffffffffffffffffffffff16905084565b828054600181600116156101000203166002900490600052602060002090601f016020900481019282601f106109ec57805160ff1916838001178555610a1a565b82800160010185558215610a1a579182015b82811115610a195782518255916020019190600101906109fe565b5b509050610a279190610a2b565b5090565b610a4d91905b80821115610a49576000816000905550600101610a31565b5090565b9056fea265627a7a72315820ce5a305c27a73bcd62d09e749fe3fdba3f7d5e6990b824e4a0097d78538ac1f264736f6c63430005100032",
  "source": "// SPDX-License-Identifier: GPL-3.0\npragma solidity >=0.4.21;\n\ncontract ColdStorageContract {\n    struct ColdStorage {\n        string ownerName;\n        string location;\n        uint256 capacity;\n        address ownerAddress;\n        address[] tenants;\n    }\n\n    mapping(uint256 => ColdStorage) public coldStorages;\n    uint256[] public coldStorageIDs;\n\n    function addColdStorage(\n        uint256 _id,\n        string memory _ownerName,\n        string memory _location,\n        uint256 _capacity,\n        address _ownerAddress\n    ) public {\n        ColdStorage storage coldStorage = coldStorages[_id];\n        coldStorage.ownerName = _ownerName;\n        coldStorage.location = _location;\n        coldStorage.capacity = _capacity;\n        coldStorage.ownerAddress = _ownerAddress;\n    }\n\n    function getColdStorageIDs() public view returns (uint256[] memory) {\n        return coldStorageIDs;\n    }\n\n    function getColdStorage(uint256 _id)\n        public\n        view\n        returns (\n            string memory _ownerName,\n            string memory _location,\n            uint256 _capacity,\n            address _ownerAddress\n        )\n    {\n        return (\n            coldStorages[_id].ownerName,\n            coldStorages[_id].location,\n            coldStorages[_id].capacity,\n            coldStorages[_id].ownerAddress\n        );\n    }\n\n    function countColdStorages() public view returns (uint256) {\n        return coldStorageIDs.length;\n    }\n}\n",
  "sourcePath": "/home/aravind/incentive_dapp/contracts/ColdStorageContract.sol",
  "compiler": {
    "name": "solc",
    "version": "0.5.16+commit.9c3226ce.Emscripten.clang"
  },
  "schemaVersion": "3.3.4",
  "updatedAt": "2021-04-08T12:20:55.219Z",
  "devdoc": {
    "methods": {}
  },
  "userdoc": {
    "methods": {}
  }
}