{
  "contractName": "FarmerContract",
  "abi": [
    {
      "inputs": [
        {
          "internalType": "address",
          "name": "_rcAddress",
          "type": "address"
        },
        {
          "internalType": "address",
          "name": "_pcAddress",
          "type": "address"
        }
      ],
      "payable": false,
      "stateMutability": "nonpayable",
      "type": "constructor"
    },
    {
      "constant": true,
      "inputs": [
        {
          "internalType": "uint256",
          "name": "",
          "type": "uint256"
        }
      ],
      "name": "farmerAccounts",
      "outputs": [
        {
          "internalType": "address",
          "name": "",
          "type": "address"
        }
      ],
      "payable": false,
      "stateMutability": "view",
      "type": "function"
    },
    {
      "constant": true,
      "inputs": [
        {
          "internalType": "address",
          "name": "",
          "type": "address"
        }
      ],
      "name": "farmers",
      "outputs": [
        {
          "internalType": "string",
          "name": "name",
          "type": "string"
        },
        {
          "internalType": "string",
          "name": "stateOfResidence",
          "type": "string"
        },
        {
          "internalType": "string",
          "name": "gender",
          "type": "string"
        },
        {
          "internalType": "uint256",
          "name": "landOwned",
          "type": "uint256"
        },
        {
          "internalType": "bool",
          "name": "isEligible",
          "type": "bool"
        }
      ],
      "payable": false,
      "stateMutability": "view",
      "type": "function"
    },
    {
      "constant": true,
      "inputs": [],
      "name": "pc",
      "outputs": [
        {
          "internalType": "contract PolicyContract",
          "name": "",
          "type": "address"
        }
      ],
      "payable": false,
      "stateMutability": "view",
      "type": "function"
    },
    {
      "constant": true,
      "inputs": [],
      "name": "rc",
      "outputs": [
        {
          "internalType": "contract Roles",
          "name": "",
          "type": "address"
        }
      ],
      "payable": false,
      "stateMutability": "view",
      "type": "function"
    },
    {
      "constant": false,
      "inputs": [
        {
          "internalType": "address",
          "name": "_address",
          "type": "address"
        },
        {
          "internalType": "string",
          "name": "_name",
          "type": "string"
        },
        {
          "internalType": "string",
          "name": "_stateOfResidence",
          "type": "string"
        },
        {
          "internalType": "string",
          "name": "_gender",
          "type": "string"
        },
        {
          "internalType": "uint256",
          "name": "_landOwned",
          "type": "uint256"
        }
      ],
      "name": "addFarmer",
      "outputs": [],
      "payable": false,
      "stateMutability": "nonpayable",
      "type": "function"
    },
    {
      "constant": true,
      "inputs": [],
      "name": "getFarmers",
      "outputs": [
        {
          "internalType": "address[]",
          "name": "",
          "type": "address[]"
        }
      ],
      "payable": false,
      "stateMutability": "view",
      "type": "function"
    },
    {
      "constant": false,
      "inputs": [
        {
          "internalType": "address",
          "name": "_address",
          "type": "address"
        }
      ],
      "name": "getPoliciesAvailable",
      "outputs": [
        {
          "internalType": "uint256[]",
          "name": "",
          "type": "uint256[]"
        }
      ],
      "payable": false,
      "stateMutability": "nonpayable",
      "type": "function"
    },
    {
      "constant": true,
      "inputs": [],
      "name": "getPolicies",
      "outputs": [
        {
          "internalType": "uint256[]",
          "name": "",
          "type": "uint256[]"
        }
      ],
      "payable": false,
      "stateMutability": "view",
      "type": "function"
    },
    {
      "constant": true,
      "inputs": [
        {
          "internalType": "uint256",
          "name": "_policyId",
          "type": "uint256"
        }
      ],
      "name": "getPolicy",
      "outputs": [
        {
          "internalType": "uint256",
          "name": "_maxLandReq",
          "type": "uint256"
        },
        {
          "internalType": "string",
          "name": "_gender",
          "type": "string"
        },
        {
          "internalType": "string",
          "name": "_stateOfResidence",
          "type": "string"
        }
      ],
      "payable": false,
      "stateMutability": "view",
      "type": "function"
    },
    {
      "constant": true,
      "inputs": [
        {
          "internalType": "address",
          "name": "_address",
          "type": "address"
        }
      ],
      "name": "getFarmer",
      "outputs": [
        {
          "internalType": "string",
          "name": "_name",
          "type": "string"
        },
        {
          "internalType": "string",
          "name": "_placeOfResidence",
          "type": "string"
        },
        {
          "internalType": "string",
          "name": "_gender",
          "type": "string"
        },
        {
          "internalType": "uint256",
          "name": "_landOwned",
          "type": "uint256"
        },
        {
          "internalType": "bool",
          "name": "isEligible",
          "type": "bool"
        }
      ],
      "payable": false,
      "stateMutability": "view",
      "type": "function"
    },
    {
      "constant": true,
      "inputs": [],
      "name": "countFarmers",
      "outputs": [
        {
          "internalType": "uint256",
          "name": "",
          "type": "uint256"
        }
      ],
      "payable": false,
      "stateMutability": "view",
      "type": "function"
    },
    {
      "constant": false,
      "inputs": [
        {
          "internalType": "address",
          "name": "_address",
          "type": "address"
        }
      ],
      "name": "setEligible",
      "outputs": [],
      "payable": false,
      "stateMutability": "nonpayable",
      "type": "function"
    }
  ],
  "bytecode": "0x608060405234801561001057600080fd5b50604051611d45380380611d458339818101604052604081101561003357600080fd5b810190808051906020019092919080519060200190929190505050816000806101000a81548173ffffffffffffffffffffffffffffffffffffffff021916908373ffffffffffffffffffffffffffffffffffffffff16021790555080600160006101000a81548173ffffffffffffffffffffffffffffffffffffffff021916908373ffffffffffffffffffffffffffffffffffffffff1602179055505050611c65806100e06000396000f3fe608060405234801561001057600080fd5b50600436106100b45760003560e01c80637a71b4d5116100715780637a71b4d5146106955780639b5692d314610703578063e69919ae1461079c578063e7609c16146107e6578063ece338721461098d578063f904cf04146109ab576100b4565b806312f77332146100b95780632b07fce3146101035780633b04f6f11461021d578063401b21681461027c5780635e9842b014610423578063789f8d4014610636575b600080fd5b6100c16109ef565b604051808273ffffffffffffffffffffffffffffffffffffffff1673ffffffffffffffffffffffffffffffffffffffff16815260200191505060405180910390f35b61012f6004803603602081101561011957600080fd5b8101908080359060200190929190505050610a14565b604051808481526020018060200180602001838103835285818151815260200191508051906020019080838360005b8381101561017957808201518184015260208101905061015e565b50505050905090810190601f1680156101a65780820380516001836020036101000a031916815260200191505b50838103825284818151815260200191508051906020019080838360005b838110156101df5780820151818401526020810190506101c4565b50505050905090810190601f16801561020c5780820380516001836020036101000a031916815260200191505b509550505050505060405180910390f35b610225610c53565b6040518080602001828103825283818151815260200191508051906020019060200280838360005b8381101561026857808201518184015260208101905061024d565b505050509050019250505060405180910390f35b6102be6004803603602081101561029257600080fd5b81019080803573ffffffffffffffffffffffffffffffffffffffff169060200190929190505050610d97565b6040518080602001806020018060200186815260200185151515158152602001848103845289818151815260200191508051906020019080838360005b838110156103165780820151818401526020810190506102fb565b50505050905090810190601f1680156103435780820380516001836020036101000a031916815260200191505b50848103835288818151815260200191508051906020019080838360005b8381101561037c578082015181840152602081019050610361565b50505050905090810190601f1680156103a95780820380516001836020036101000a031916815260200191505b50848103825287818151815260200191508051906020019080838360005b838110156103e25780820151818401526020810190506103c7565b50505050905090810190601f16801561040f5780820380516001836020036101000a031916815260200191505b509850505050505050505060405180910390f35b610634600480360360a081101561043957600080fd5b81019080803573ffffffffffffffffffffffffffffffffffffffff1690602001909291908035906020019064010000000081111561047657600080fd5b82018360208201111561048857600080fd5b803590602001918460018302840111640100000000831117156104aa57600080fd5b91908080601f016020809104026020016040519081016040528093929190818152602001838380828437600081840152601f19601f8201169050808301925050505050505091929192908035906020019064010000000081111561050d57600080fd5b82018360208201111561051f57600080fd5b8035906020019184600183028401116401000000008311171561054157600080fd5b91908080601f016020809104026020016040519081016040528093929190818152602001838380828437600081840152601f19601f820116905080830192505050505050509192919290803590602001906401000000008111156105a457600080fd5b8201836020820111156105b657600080fd5b803590602001918460018302840111640100000000831117156105d857600080fd5b91908080601f016020809104026020016040519081016040528093929190818152602001838380828437600081840152601f19601f82011690508083019250505050505050919291929080359060200190929190505050610fa2565b005b61063e611225565b6040518080602001828103825283818151815260200191508051906020019060200280838360005b83811015610681578082015181840152602081019050610666565b505050509050019250505060405180910390f35b6106c1600480360360208110156106ab57600080fd5b81019080803590602001909291905050506112b3565b604051808273ffffffffffffffffffffffffffffffffffffffff1673ffffffffffffffffffffffffffffffffffffffff16815260200191505060405180910390f35b6107456004803603602081101561071957600080fd5b81019080803573ffffffffffffffffffffffffffffffffffffffff1690602001909291905050506112ef565b6040518080602001828103825283818151815260200191508051906020019060200280838360005b8381101561078857808201518184015260208101905061076d565b505050509050019250505060405180910390f35b6107a46117b2565b604051808273ffffffffffffffffffffffffffffffffffffffff1673ffffffffffffffffffffffffffffffffffffffff16815260200191505060405180910390f35b610828600480360360208110156107fc57600080fd5b81019080803573ffffffffffffffffffffffffffffffffffffffff1690602001909291905050506117d8565b6040518080602001806020018060200186815260200185151515158152602001848103845289818151815260200191508051906020019080838360005b83811015610880578082015181840152602081019050610865565b50505050905090810190601f1680156108ad5780820380516001836020036101000a031916815260200191505b50848103835288818151815260200191508051906020019080838360005b838110156108e65780820151818401526020810190506108cb565b50505050905090810190601f1680156109135780820380516001836020036101000a031916815260200191505b50848103825287818151815260200191508051906020019080838360005b8381101561094c578082015181840152602081019050610931565b50505050905090810190601f1680156109795780820380516001836020036101000a031916815260200191505b509850505050505050505060405180910390f35b610995611b20565b6040518082815260200191505060405180910390f35b6109ed600480360360208110156109c157600080fd5b81019080803573ffffffffffffffffffffffffffffffffffffffff169060200190929190505050611b2d565b005b6000809054906101000a900473ffffffffffffffffffffffffffffffffffffffff1681565b6000606080600160009054906101000a900473ffffffffffffffffffffffffffffffffffffffff1673ffffffffffffffffffffffffffffffffffffffff16632b07fce3856040518263ffffffff1660e01b81526004018082815260200191505060006040518083038186803b158015610a8c57600080fd5b505afa158015610aa0573d6000803e3d6000fd5b505050506040513d6000823e3d601f19601f820116820180604052506060811015610aca57600080fd5b810190808051906020019092919080516040519392919084640100000000821115610af457600080fd5b83820191506020820185811115610b0a57600080fd5b8251866001820283011164010000000082111715610b2757600080fd5b8083526020830192505050908051906020019080838360005b83811015610b5b578082015181840152602081019050610b40565b50505050905090810190601f168015610b885780820380516001836020036101000a031916815260200191505b5060405260200180516040519392919084640100000000821115610bab57600080fd5b83820191506020820185811115610bc157600080fd5b8251866001820283011164010000000082111715610bde57600080fd5b8083526020830192505050908051906020019080838360005b83811015610c12578082015181840152602081019050610bf7565b50505050905090810190601f168015610c3f5780820380516001836020036101000a031916815260200191505b506040525050509250925092509193909250565b6060600160009054906101000a900473ffffffffffffffffffffffffffffffffffffffff1673ffffffffffffffffffffffffffffffffffffffff16633b04f6f16040518163ffffffff1660e01b815260040160006040518083038186803b158015610cbd57600080fd5b505afa158015610cd1573d6000803e3d6000fd5b505050506040513d6000823e3d601f19601f820116820180604052506020811015610cfb57600080fd5b8101908080516040519392919084640100000000821115610d1b57600080fd5b83820191506020820185811115610d3157600080fd5b8251866020820283011164010000000082111715610d4e57600080fd5b8083526020830192505050908051906020019060200280838360005b83811015610d85578082015181840152602081019050610d6a565b50505050905001604052505050905090565b6002602052806000526040600020600091509050806000018054600181600116156101000203166002900480601f016020809104026020016040519081016040528092919081815260200182805460018160011615610100020316600290048015610e435780601f10610e1857610100808354040283529160200191610e43565b820191906000526020600020905b815481529060010190602001808311610e2657829003601f168201915b505050505090806001018054600181600116156101000203166002900480601f016020809104026020016040519081016040528092919081815260200182805460018160011615610100020316600290048015610ee15780601f10610eb657610100808354040283529160200191610ee1565b820191906000526020600020905b815481529060010190602001808311610ec457829003601f168201915b505050505090806002018054600181600116156101000203166002900480601f016020809104026020016040519081016040528092919081815260200182805460018160011615610100020316600290048015610f7f5780601f10610f5457610100808354040283529160200191610f7f565b820191906000526020600020905b815481529060010190602001808311610f6257829003601f168201915b5050505050908060030154908060050160009054906101000a900460ff16905085565b6000600260008773ffffffffffffffffffffffffffffffffffffffff1673ffffffffffffffffffffffffffffffffffffffff168152602001908152602001600020905084816000019080519060200190610ffd929190611b8b565b5083816001019080519060200190611016929190611b8b565b508281600201908051906020019061102f929190611b8b565b5081816003018190555060008160050160006101000a81548160ff02191690831515021790555060038690806001815401808255809150509060018203906000526020600020016000909192909190916101000a81548173ffffffffffffffffffffffffffffffffffffffff021916908373ffffffffffffffffffffffffffffffffffffffff160217905550506000809054906101000a900473ffffffffffffffffffffffffffffffffffffffff1673ffffffffffffffffffffffffffffffffffffffff16637fde1c8a876000809054906101000a900473ffffffffffffffffffffffffffffffffffffffff1673ffffffffffffffffffffffffffffffffffffffff1663b67ac8736040518163ffffffff1660e01b815260040160206040518083038186803b15801561116157600080fd5b505afa158015611175573d6000803e3d6000fd5b505050506040513d602081101561118b57600080fd5b81019080805190602001909291905050506040518363ffffffff1660e01b8152600401808373ffffffffffffffffffffffffffffffffffffffff1673ffffffffffffffffffffffffffffffffffffffff16815260200182815260200192505050600060405180830381600087803b15801561120557600080fd5b505af1158015611219573d6000803e3d6000fd5b50505050505050505050565b606060038054806020026020016040519081016040528092919081815260200182805480156112a957602002820191906000526020600020905b8160009054906101000a900473ffffffffffffffffffffffffffffffffffffffff1673ffffffffffffffffffffffffffffffffffffffff168152602001906001019080831161125f575b5050505050905090565b600381815481106112c057fe5b906000526020600020016000915054906101000a900473ffffffffffffffffffffffffffffffffffffffff1681565b6060806112fa610c53565b90506000600260008573ffffffffffffffffffffffffffffffffffffffff1673ffffffffffffffffffffffffffffffffffffffff168152602001908152602001600020905060008090505b825181101561175557600060608060006001905061137587868151811061136857fe5b6020026020010151610a14565b8094508195508296505050506000841180156113945750838660030154115b1561139e57600090505b60405160200180807f616c6c0000000000000000000000000000000000000000000000000000000000815250600301905060405160208183030381529060405280519060200120836040516020018082805190602001908083835b6020831061141c57805182526020820191506020810190506020830392506113f9565b6001836020036101000a038019825116818451168082178552505050505050905001915050604051602081830303815290604052805190602001201415801561155257508560020160405160200180828054600181600116156101000203166002900480156114c25780601f106114a05761010080835404028352918201916114c2565b820191906000526020600020905b8154815290600101906020018083116114ae575b505091505060405160208183030381529060405280519060200120836040516020018082805190602001908083835b6020831061151457805182526020820191506020810190506020830392506114f1565b6001836020036101000a0380198251168184511680821785525050505050509050019150506040516020818303038152906040528051906020012014155b1561155c57600090505b60405160200180600001905060405160208183030381529060405280519060200120826040516020018082805190602001908083835b602083106115b55780518252602082019150602081019050602083039250611592565b6001836020036101000a03801982511681845116808217855250505050505090500191505060405160208183030381529060405280519060200120141580156116eb575085600101604051602001808280546001816001161561010002031660029004801561165b5780601f1061163957610100808354040283529182019161165b565b820191906000526020600020905b815481529060010190602001808311611647575b505091505060405160208183030381529060405280519060200120826040516020018082805190602001908083835b602083106116ad578051825260208201915060208101905060208303925061168a565b6001836020036101000a0380198251168184511680821785525050505050509050019150506040516020818303038152906040528051906020012014155b156116f557600090505b600115158115151415611744578560040187868151811061171257fe5b602002602001015190806001815401808255809150509060018203906000526020600020016000909192909190915055505b505050508080600101915050611345565b50806004018054806020026020016040519081016040528092919081815260200182805480156117a457602002820191906000526020600020905b815481526020019060010190808311611790575b505050505092505050919050565b600160009054906101000a900473ffffffffffffffffffffffffffffffffffffffff1681565b6060806060600080600260008773ffffffffffffffffffffffffffffffffffffffff1673ffffffffffffffffffffffffffffffffffffffff168152602001908152602001600020600001600260008873ffffffffffffffffffffffffffffffffffffffff1673ffffffffffffffffffffffffffffffffffffffff168152602001908152602001600020600101600260008973ffffffffffffffffffffffffffffffffffffffff1673ffffffffffffffffffffffffffffffffffffffff168152602001908152602001600020600201600260008a73ffffffffffffffffffffffffffffffffffffffff1673ffffffffffffffffffffffffffffffffffffffff16815260200190815260200160002060030154600260008b73ffffffffffffffffffffffffffffffffffffffff1673ffffffffffffffffffffffffffffffffffffffff16815260200190815260200160002060050160009054906101000a900460ff16848054600181600116156101000203166002900480601f0160208091040260200160405190810160405280929190818152602001828054600181600116156101000203166002900480156119ce5780601f106119a3576101008083540402835291602001916119ce565b820191906000526020600020905b8154815290600101906020018083116119b157829003601f168201915b50505050509450838054600181600116156101000203166002900480601f016020809104026020016040519081016040528092919081815260200182805460018160011615610100020316600290048015611a6a5780601f10611a3f57610100808354040283529160200191611a6a565b820191906000526020600020905b815481529060010190602001808311611a4d57829003601f168201915b50505050509350828054600181600116156101000203166002900480601f016020809104026020016040519081016040528092919081815260200182805460018160011615610100020316600290048015611b065780601f10611adb57610100808354040283529160200191611b06565b820191906000526020600020905b815481529060010190602001808311611ae957829003601f168201915b505050505092509450945094509450945091939590929450565b6000600380549050905090565b6001600260008373ffffffffffffffffffffffffffffffffffffffff1673ffffffffffffffffffffffffffffffffffffffff16815260200190815260200160002060050160006101000a81548160ff02191690831515021790555050565b828054600181600116156101000203166002900490600052602060002090601f016020900481019282601f10611bcc57805160ff1916838001178555611bfa565b82800160010185558215611bfa579182015b82811115611bf9578251825591602001919060010190611bde565b5b509050611c079190611c0b565b5090565b611c2d91905b80821115611c29576000816000905550600101611c11565b5090565b9056fea265627a7a7231582033afff955d421cd55494158e33fd64bd41b2ab3015b0e0fece17c26f94b79bb964736f6c63430005100032",
  "source": "// SPDX-License-Identifier: GPL-3.0\npragma solidity >=0.4.21;\nimport \"./Roles.sol\";\nimport \"./PolicyContract.sol\";\n\ncontract FarmerContract {\n    Roles public rc;\n    PolicyContract public pc;\n\n    constructor(address _rcAddress, address _pcAddress) public {\n        rc = Roles(_rcAddress);\n        pc = PolicyContract(_pcAddress);\n    }\n\n    struct Farmer {\n        string name;\n        string stateOfResidence;\n        string gender;\n        uint256 landOwned;\n        uint256[] policiesAvailable;\n        bool isEligible;\n    }\n\n    mapping(address => Farmer) public farmers;\n    address[] public farmerAccounts;\n\n    function addFarmer(\n        address _address,\n        string memory _name,\n        string memory _stateOfResidence,\n        string memory _gender,\n        uint256 _landOwned\n    ) public {\n        Farmer storage farmer = farmers[_address];\n        farmer.name = _name;\n        farmer.stateOfResidence = _stateOfResidence;\n        farmer.gender = _gender;\n        farmer.landOwned = _landOwned;\n        farmer.isEligible = false;\n\n        farmerAccounts.push(_address);\n\n        rc.addRole(_address, rc.farmerRoleID());\n    }\n\n    function getFarmers() public view returns (address[] memory) {\n        return farmerAccounts;\n    }\n\n    function getPoliciesAvailable(address _address)\n        public\n        returns (uint256[] memory)\n    {\n        uint256[] memory listOfPolicies = getPolicies();\n        Farmer storage farmer = farmers[_address];\n\n        for (uint256 i = 0; i < listOfPolicies.length; i++) {\n            uint256 _maxLandReq;\n            string memory _gender;\n            string memory _stateOfResidence;\n            bool acceptedPolicy = true;\n\n            (_maxLandReq, _gender, _stateOfResidence) = getPolicy(\n                listOfPolicies[i]\n            );\n            if (_maxLandReq > 0 && farmer.landOwned > _maxLandReq) {\n                acceptedPolicy = false;\n            }\n            if (\n                keccak256(abi.encodePacked(_gender)) !=\n                keccak256(abi.encodePacked(\"all\")) &&\n                keccak256(abi.encodePacked(_gender)) !=\n                keccak256(abi.encodePacked(farmer.gender))\n            ) {\n                acceptedPolicy = false;\n            }\n            if (\n                keccak256(abi.encodePacked(_stateOfResidence)) !=\n                keccak256(abi.encodePacked(\"\")) &&\n                keccak256(abi.encodePacked(_stateOfResidence)) !=\n                keccak256(abi.encodePacked(farmer.stateOfResidence))\n            ) {\n                acceptedPolicy = false;\n            }\n            if (acceptedPolicy == true) {\n                farmer.policiesAvailable.push(listOfPolicies[i]);\n            }\n        }\n        return farmer.policiesAvailable;\n    }\n\n    function getPolicies() public view returns (uint256[] memory) {\n        return pc.getPolicies();\n    }\n\n    function getPolicy(uint256 _policyId)\n        public\n        view\n        returns (\n            uint256 _maxLandReq,\n            string memory _gender,\n            string memory _stateOfResidence\n        )\n    {\n        return pc.getPolicy(_policyId);\n    }\n\n    function getFarmer(address _address)\n        public\n        view\n        returns (\n            string memory _name,\n            string memory _placeOfResidence,\n            string memory _gender,\n            uint256 _landOwned,\n            bool isEligible\n        )\n    {\n        return (\n            farmers[_address].name,\n            farmers[_address].stateOfResidence,\n            farmers[_address].gender,\n            farmers[_address].landOwned,\n            farmers[_address].isEligible\n        );\n    }\n\n    function countFarmers() public view returns (uint256) {\n        return farmerAccounts.length;\n    }\n\n    function setEligible(address _address) public {\n        farmers[_address].isEligible = true;\n    }\n}\n",
  "sourcePath": "/home/aravind/incentive_dapp/contracts/FarmerContract.sol",
  "compiler": {
    "name": "solc",
    "version": "0.5.16+commit.9c3226ce.Emscripten.clang"
  },
  "schemaVersion": "3.3.4",
  "updatedAt": "2021-03-25T05:32:06.899Z",
  "networkType": "ethereum",
  "devdoc": {
    "methods": {}
  },
  "userdoc": {
    "methods": {}
  }
}