{
  "contractName": "FarmerContract",
  "abi": [
    {
      "inputs": [],
      "payable": false,
      "stateMutability": "nonpayable",
      "type": "constructor"
    },
    {
      "constant": true,
      "inputs": [],
      "name": "farmerCount",
      "outputs": [
        {
          "internalType": "uint256",
          "name": "",
          "type": "uint256"
        }
      ],
      "payable": false,
      "stateMutability": "view",
      "type": "function"
    },
    {
      "constant": true,
      "inputs": [
        {
          "internalType": "uint256",
          "name": "",
          "type": "uint256"
        }
      ],
      "name": "farmerDetails",
      "outputs": [
        {
          "internalType": "string",
          "name": "name",
          "type": "string"
        },
        {
          "internalType": "string",
          "name": "placeOfResidence",
          "type": "string"
        },
        {
          "internalType": "uint256",
          "name": "landOwned",
          "type": "uint256"
        }
      ],
      "payable": false,
      "stateMutability": "view",
      "type": "function"
    },
    {
      "constant": true,
      "inputs": [],
      "name": "owner",
      "outputs": [
        {
          "internalType": "address",
          "name": "",
          "type": "address"
        }
      ],
      "payable": false,
      "stateMutability": "view",
      "type": "function"
    },
    {
      "constant": true,
      "inputs": [],
      "name": "getOwner",
      "outputs": [
        {
          "internalType": "address",
          "name": "",
          "type": "address"
        }
      ],
      "payable": false,
      "stateMutability": "view",
      "type": "function"
    },
    {
      "constant": false,
      "inputs": [
        {
          "internalType": "string",
          "name": "_name",
          "type": "string"
        },
        {
          "internalType": "string",
          "name": "_placeOfResidence",
          "type": "string"
        },
        {
          "internalType": "uint256",
          "name": "_landOwned",
          "type": "uint256"
        }
      ],
      "name": "addFarmer",
      "outputs": [],
      "payable": false,
      "stateMutability": "nonpayable",
      "type": "function"
    },
    {
      "constant": true,
      "inputs": [],
      "name": "getFarmerNumber",
      "outputs": [
        {
          "internalType": "uint256",
          "name": "",
          "type": "uint256"
        }
      ],
      "payable": false,
      "stateMutability": "view",
      "type": "function"
    }
  ],
  "bytecode": "0x608060405234801561001057600080fd5b50336000806101000a81548173ffffffffffffffffffffffffffffffffffffffff021916908373ffffffffffffffffffffffffffffffffffffffff16021790555060006001819055506106f8806100686000396000f3fe608060405234801561001057600080fd5b50600436106100625760003560e01c8063609dc07f14610067578063893d20e8146100855780638da5cb5b146100cf578063a4f5e5e814610119578063bd45b39714610233578063e4f5f01c14610251575b600080fd5b61006f6103ad565b6040518082815260200191505060405180910390f35b61008d6103b7565b604051808273ffffffffffffffffffffffffffffffffffffffff1673ffffffffffffffffffffffffffffffffffffffff16815260200191505060405180910390f35b6100d76103e0565b604051808273ffffffffffffffffffffffffffffffffffffffff1673ffffffffffffffffffffffffffffffffffffffff16815260200191505060405180910390f35b6101456004803603602081101561012f57600080fd5b8101908080359060200190929190505050610405565b604051808060200180602001848152602001838103835286818151815260200191508051906020019080838360005b8381101561018f578082015181840152602081019050610174565b50505050905090810190601f1680156101bc5780820380516001836020036101000a031916815260200191505b50838103825285818151815260200191508051906020019080838360005b838110156101f55780820151818401526020810190506101da565b50505050905090810190601f1680156102225780820380516001836020036101000a031916815260200191505b509550505050505060405180910390f35b61023b61055f565b6040518082815260200191505060405180910390f35b6103ab6004803603606081101561026757600080fd5b810190808035906020019064010000000081111561028457600080fd5b82018360208201111561029657600080fd5b803590602001918460018302840111640100000000831117156102b857600080fd5b91908080601f016020809104026020016040519081016040528093929190818152602001838380828437600081840152601f19601f8201169050808301925050505050505091929192908035906020019064010000000081111561031b57600080fd5b82018360208201111561032d57600080fd5b8035906020019184600183028401116401000000008311171561034f57600080fd5b91908080601f016020809104026020016040519081016040528093929190818152602001838380828437600081840152601f19601f82011690508083019250505050505050919291929080359060200190929190505050610565565b005b6000600154905090565b60008060009054906101000a900473ffffffffffffffffffffffffffffffffffffffff16905090565b6000809054906101000a900473ffffffffffffffffffffffffffffffffffffffff1681565b6002602052806000526040600020600091509050806000018054600181600116156101000203166002900480601f0160208091040260200160405190810160405280929190818152602001828054600181600116156101000203166002900480156104b15780601f10610486576101008083540402835291602001916104b1565b820191906000526020600020905b81548152906001019060200180831161049457829003601f168201915b505050505090806001018054600181600116156101000203166002900480601f01602080910402602001604051908101604052809291908181526020018280546001816001161561010002031660029004801561054f5780601f106105245761010080835404028352916020019161054f565b820191906000526020600020905b81548152906001019060200180831161053257829003601f168201915b5050505050908060020154905083565b60015481565b61056d6105fd565b60405180606001604052808581526020018481526020018381525090508060026000600154815260200190815260200160002060008201518160000190805190602001906105bc92919061061e565b5060208201518160010190805190602001906105d992919061061e565b50604082015181600201559050506001806000828254019250508190555050505050565b60405180606001604052806060815260200160608152602001600081525090565b828054600181600116156101000203166002900490600052602060002090601f016020900481019282601f1061065f57805160ff191683800117855561068d565b8280016001018555821561068d579182015b8281111561068c578251825591602001919060010190610671565b5b50905061069a919061069e565b5090565b6106c091905b808211156106bc5760008160009055506001016106a4565b5090565b9056fea265627a7a723158208e12fd962796201ef6f46c414c3c74ccb38a2d69a200c3b9667c2c4457a2ce8264736f6c63430005100032",
  "source": "pragma solidity >=0.4.21 <0.7.0;\n\ncontract FarmerContract {\n    address public owner;\n    uint256 public farmerCount;\n\n    // Constructor\n    constructor() public {\n        owner = msg.sender;\n        farmerCount = 0;\n    }\n\n    function getOwner() public view returns (address) {\n        return owner;\n    }\n\n    // // Only Admin can access\n    // modifier onlyAdmin() {\n    //     require(msg.sender == owner);\n    //     _;\n    // }\n\n    struct Farmer {\n        string name;\n        string placeOfResidence;\n        uint256 landOwned;\n    }\n    mapping(uint256 => Farmer) public farmerDetails;\n\n    function addFarmer(\n        string memory _name,\n        string memory _placeOfResidence,\n        uint256 _landOwned\n    ) public {\n        Farmer memory newFarmer =\n            Farmer({\n                name: _name,\n                placeOfResidence: _placeOfResidence,\n                landOwned: _landOwned\n            });\n        farmerDetails[farmerCount] = newFarmer;\n        farmerCount += 1;\n    }\n\n    // get total number of farmers\n    function getFarmerNumber() public view returns (uint256) {\n        return farmerCount;\n    }\n}\n",
  "sourcePath": "/home/aravind/incentive_dapp/contracts/FarmerContract.sol",
  "compiler": {
    "name": "solc",
    "version": "0.5.16+commit.9c3226ce.Emscripten.clang"
  },
  "schemaVersion": "3.3.4",
  "updatedAt": "2021-03-18T09:07:36.425Z",
  "networkType": "ethereum",
  "devdoc": {
    "methods": {}
  },
  "userdoc": {
    "methods": {}
  }
}