{
  "contractName": "GovContract",
  "abi": [
    {
      "inputs": [
        {
          "internalType": "address",
          "name": "_address",
          "type": "address"
        }
      ],
      "payable": false,
      "stateMutability": "nonpayable",
      "type": "constructor"
    },
    {
      "constant": true,
      "inputs": [],
      "name": "fc",
      "outputs": [
        {
          "internalType": "contract FarmerContract",
          "name": "",
          "type": "address"
        }
      ],
      "payable": false,
      "stateMutability": "view",
      "type": "function"
    },
    {
      "constant": true,
      "inputs": [
        {
          "internalType": "address",
          "name": "_address",
          "type": "address"
        }
      ],
      "name": "getFarmerDetails",
      "outputs": [
        {
          "internalType": "string",
          "name": "_name",
          "type": "string"
        },
        {
          "internalType": "string",
          "name": "_stateOfResidence",
          "type": "string"
        },
        {
          "internalType": "string",
          "name": "_gender",
          "type": "string"
        },
        {
          "internalType": "uint256",
          "name": "_landOwned",
          "type": "uint256"
        },
        {
          "internalType": "bool",
          "name": "_isEligible",
          "type": "bool"
        }
      ],
      "payable": false,
      "stateMutability": "view",
      "type": "function"
    },
    {
      "constant": false,
      "inputs": [
        {
          "internalType": "address",
          "name": "_address",
          "type": "address"
        }
      ],
      "name": "setFarmerAsEligible",
      "outputs": [],
      "payable": false,
      "stateMutability": "nonpayable",
      "type": "function"
    }
  ],
  "bytecode": "0x608060405234801561001057600080fd5b5060405161075b38038061075b8339818101604052602081101561003357600080fd5b8101908080519060200190929190505050806000806101000a81548173ffffffffffffffffffffffffffffffffffffffff021916908373ffffffffffffffffffffffffffffffffffffffff160217905550506106c7806100946000396000f3fe608060405234801561001057600080fd5b50600436106100415760003560e01c806381f4be5e14610046578063a024151c14610090578063d335ccfa146100d4575b600080fd5b61004e61027b565b604051808273ffffffffffffffffffffffffffffffffffffffff1673ffffffffffffffffffffffffffffffffffffffff16815260200191505060405180910390f35b6100d2600480360360208110156100a657600080fd5b81019080803573ffffffffffffffffffffffffffffffffffffffff1690602001909291905050506102a0565b005b610116600480360360208110156100ea57600080fd5b81019080803573ffffffffffffffffffffffffffffffffffffffff16906020019092919050505061035b565b6040518080602001806020018060200186815260200185151515158152602001848103845289818151815260200191508051906020019080838360005b8381101561016e578082015181840152602081019050610153565b50505050905090810190601f16801561019b5780820380516001836020036101000a031916815260200191505b50848103835288818151815260200191508051906020019080838360005b838110156101d45780820151818401526020810190506101b9565b50505050905090810190601f1680156102015780820380516001836020036101000a031916815260200191505b50848103825287818151815260200191508051906020019080838360005b8381101561023a57808201518184015260208101905061021f565b50505050905090810190601f1680156102675780820380516001836020036101000a031916815260200191505b509850505050505050505060405180910390f35b6000809054906101000a900473ffffffffffffffffffffffffffffffffffffffff1681565b6000809054906101000a900473ffffffffffffffffffffffffffffffffffffffff1673ffffffffffffffffffffffffffffffffffffffff1663f904cf04826040518263ffffffff1660e01b8152600401808273ffffffffffffffffffffffffffffffffffffffff1673ffffffffffffffffffffffffffffffffffffffff168152602001915050600060405180830381600087803b15801561034057600080fd5b505af1158015610354573d6000803e3d6000fd5b5050505050565b60608060606000806000809054906101000a900473ffffffffffffffffffffffffffffffffffffffff1673ffffffffffffffffffffffffffffffffffffffff1663e7609c16876040518263ffffffff1660e01b8152600401808273ffffffffffffffffffffffffffffffffffffffff1673ffffffffffffffffffffffffffffffffffffffff16815260200191505060006040518083038186803b15801561040157600080fd5b505afa158015610415573d6000803e3d6000fd5b505050506040513d6000823e3d601f19601f8201168201806040525060a081101561043f57600080fd5b810190808051604051939291908464010000000082111561045f57600080fd5b8382019150602082018581111561047557600080fd5b825186600182028301116401000000008211171561049257600080fd5b8083526020830192505050908051906020019080838360005b838110156104c65780820151818401526020810190506104ab565b50505050905090810190601f1680156104f35780820380516001836020036101000a031916815260200191505b506040526020018051604051939291908464010000000082111561051657600080fd5b8382019150602082018581111561052c57600080fd5b825186600182028301116401000000008211171561054957600080fd5b8083526020830192505050908051906020019080838360005b8381101561057d578082015181840152602081019050610562565b50505050905090810190601f1680156105aa5780820380516001836020036101000a031916815260200191505b50604052602001805160405193929190846401000000008211156105cd57600080fd5b838201915060208201858111156105e357600080fd5b825186600182028301116401000000008211171561060057600080fd5b8083526020830192505050908051906020019080838360005b83811015610634578082015181840152602081019050610619565b50505050905090810190601f1680156106615780820380516001836020036101000a031916815260200191505b506040526020018051906020019092919080519060200190929190505050945094509450945094509193959092945056fea265627a7a7231582021844f0d7ecc51fe4d6b53f7dc064cde1d352d2d439630b6df88baf0067cd64364736f6c63430005100032",
  "source": "pragma solidity >=0.4.21;\n\nimport \"./FarmerContract.sol\";\n\ncontract GovContract {\n    FarmerContract public fc;\n\n    constructor(address _address) public {\n        fc = FarmerContract(_address);\n    }\n\n    function getFarmerDetails(address _address)\n        public\n        view\n        returns (\n            string memory _name,\n            string memory _stateOfResidence,\n            string memory _gender,\n            uint256 _landOwned,\n            bool _isEligible\n        )\n    {\n        return fc.getFarmer(_address);\n    }\n\n    function setFarmerAsEligible(address _address) public {\n        fc.setEligible(_address);\n    }\n}\n",
  "sourcePath": "/home/aravind/incentive_dapp/contracts/GovContract.sol",
  "compiler": {
    "name": "solc",
    "version": "0.5.16+commit.9c3226ce.Emscripten.clang"
  },
  "schemaVersion": "3.3.4",
  "updatedAt": "2021-03-24T19:10:41.162Z",
  "networkType": "ethereum",
  "devdoc": {
    "methods": {}
  },
  "userdoc": {
    "methods": {}
  }
}