{
  "contractName": "GovContract",
  "abi": [
    {
      "inputs": [
        {
          "internalType": "address",
          "name": "_address",
          "type": "address"
        }
      ],
      "payable": false,
      "stateMutability": "nonpayable",
      "type": "constructor"
    },
    {
      "constant": true,
      "inputs": [],
      "name": "fc",
      "outputs": [
        {
          "internalType": "contract FarmerContract",
          "name": "",
          "type": "address"
        }
      ],
      "payable": false,
      "stateMutability": "view",
      "type": "function"
    },
    {
      "constant": true,
      "inputs": [
        {
          "internalType": "address",
          "name": "_address",
          "type": "address"
        }
      ],
      "name": "getFarmerDetails",
      "outputs": [
        {
          "internalType": "string",
          "name": "_name",
          "type": "string"
        },
        {
          "internalType": "string",
          "name": "_placeOfResidence",
          "type": "string"
        },
        {
          "internalType": "uint256",
          "name": "_landOwned",
          "type": "uint256"
        },
        {
          "internalType": "bool",
          "name": "_isEligible",
          "type": "bool"
        }
      ],
      "payable": false,
      "stateMutability": "view",
      "type": "function"
    },
    {
      "constant": false,
      "inputs": [
        {
          "internalType": "address",
          "name": "_address",
          "type": "address"
        }
      ],
      "name": "setFarmerAsEligible",
      "outputs": [],
      "payable": false,
      "stateMutability": "nonpayable",
      "type": "function"
    }
  ],
  "bytecode": "0x608060405234801561001057600080fd5b506040516106323803806106328339818101604052602081101561003357600080fd5b8101908080519060200190929190505050806000806101000a81548173ffffffffffffffffffffffffffffffffffffffff021916908373ffffffffffffffffffffffffffffffffffffffff1602179055505061059e806100946000396000f3fe608060405234801561001057600080fd5b50600436106100415760003560e01c806381f4be5e14610046578063a024151c14610090578063d335ccfa146100d4575b600080fd5b61004e61020f565b604051808273ffffffffffffffffffffffffffffffffffffffff1673ffffffffffffffffffffffffffffffffffffffff16815260200191505060405180910390f35b6100d2600480360360208110156100a657600080fd5b81019080803573ffffffffffffffffffffffffffffffffffffffff169060200190929190505050610234565b005b610116600480360360208110156100ea57600080fd5b81019080803573ffffffffffffffffffffffffffffffffffffffff1690602001909291905050506102ef565b60405180806020018060200185815260200184151515158152602001838103835287818151815260200191508051906020019080838360005b8381101561016a57808201518184015260208101905061014f565b50505050905090810190601f1680156101975780820380516001836020036101000a031916815260200191505b50838103825286818151815260200191508051906020019080838360005b838110156101d05780820151818401526020810190506101b5565b50505050905090810190601f1680156101fd5780820380516001836020036101000a031916815260200191505b50965050505050505060405180910390f35b6000809054906101000a900473ffffffffffffffffffffffffffffffffffffffff1681565b6000809054906101000a900473ffffffffffffffffffffffffffffffffffffffff1673ffffffffffffffffffffffffffffffffffffffff1663f904cf04826040518263ffffffff1660e01b8152600401808273ffffffffffffffffffffffffffffffffffffffff1673ffffffffffffffffffffffffffffffffffffffff168152602001915050600060405180830381600087803b1580156102d457600080fd5b505af11580156102e8573d6000803e3d6000fd5b5050505050565b6060806000806000809054906101000a900473ffffffffffffffffffffffffffffffffffffffff1673ffffffffffffffffffffffffffffffffffffffff1663e7609c16866040518263ffffffff1660e01b8152600401808273ffffffffffffffffffffffffffffffffffffffff1673ffffffffffffffffffffffffffffffffffffffff16815260200191505060006040518083038186803b15801561039357600080fd5b505afa1580156103a7573d6000803e3d6000fd5b505050506040513d6000823e3d601f19601f8201168201806040525060808110156103d157600080fd5b81019080805160405193929190846401000000008211156103f157600080fd5b8382019150602082018581111561040757600080fd5b825186600182028301116401000000008211171561042457600080fd5b8083526020830192505050908051906020019080838360005b8381101561045857808201518184015260208101905061043d565b50505050905090810190601f1680156104855780820380516001836020036101000a031916815260200191505b50604052602001805160405193929190846401000000008211156104a857600080fd5b838201915060208201858111156104be57600080fd5b82518660018202830111640100000000821117156104db57600080fd5b8083526020830192505050908051906020019080838360005b8381101561050f5780820151818401526020810190506104f4565b50505050905090810190601f16801561053c5780820380516001836020036101000a031916815260200191505b5060405260200180519060200190929190805190602001909291905050509350935093509350919350919356fea265627a7a723158209110a772f1ab8e27653b44a2cf279ae8ab909791dec9c0aee16ffc3bc687db0f64736f6c63430005100032",
  "source": "// SPDX-License-Identifier: GPL-3.0\npragma solidity >=0.4.21;\n\nimport \"./FarmerContract.sol\";\n\ncontract GovContract {\n    FarmerContract public fc;\n\n    constructor(address _address) public {\n        fc = FarmerContract(_address);\n    }\n\n    function getFarmerDetails(address _address)\n        public\n        view\n        returns (\n            string memory _name,\n            string memory _placeOfResidence,\n            uint256 _landOwned,\n            bool _isEligible\n        )\n    {\n        return fc.getFarmer(_address);\n    }\n\n    function setFarmerAsEligible(address _address) public {\n        fc.setEligible(_address);\n    }\n}\n",
  "sourcePath": "/home/vaishakh/Desktop/Lectures/CS229/Project/farmers-incentive-dapp/contracts/GovContract.sol",
  "compiler": {
    "name": "solc",
    "version": "0.5.16+commit.9c3226ce.Emscripten.clang"
  },
  "schemaVersion": "3.3.4",
  "updatedAt": "2021-03-24T12:00:38.573Z",
  "networkType": "ethereum",
  "devdoc": {
    "methods": {}
  },
  "userdoc": {
    "methods": {}
  }
}