{
  "contractName": "GovContract",
  "abi": [
    {
      "inputs": [
        {
          "internalType": "address",
          "name": "_rcAddress",
          "type": "address"
        },
        {
          "internalType": "address",
          "name": "_fcAddress",
          "type": "address"
        }
      ],
      "payable": false,
      "stateMutability": "nonpayable",
      "type": "constructor"
    },
    {
      "constant": true,
      "inputs": [],
      "name": "fc",
      "outputs": [
        {
          "internalType": "contract FarmerContract",
          "name": "",
          "type": "address"
        }
      ],
      "payable": false,
      "stateMutability": "view",
      "type": "function"
    },
    {
      "constant": true,
      "inputs": [
        {
          "internalType": "uint256",
          "name": "",
          "type": "uint256"
        }
      ],
      "name": "govOfficialAccounts",
      "outputs": [
        {
          "internalType": "address",
          "name": "",
          "type": "address"
        }
      ],
      "payable": false,
      "stateMutability": "view",
      "type": "function"
    },
    {
      "constant": true,
      "inputs": [
        {
          "internalType": "address",
          "name": "",
          "type": "address"
        }
      ],
      "name": "govOfficials",
      "outputs": [
        {
          "internalType": "string",
          "name": "name",
          "type": "string"
        },
        {
          "internalType": "string",
          "name": "govId",
          "type": "string"
        }
      ],
      "payable": false,
      "stateMutability": "view",
      "type": "function"
    },
    {
      "constant": true,
      "inputs": [],
      "name": "rc",
      "outputs": [
        {
          "internalType": "contract Roles",
          "name": "",
          "type": "address"
        }
      ],
      "payable": false,
      "stateMutability": "view",
      "type": "function"
    },
    {
      "constant": true,
      "inputs": [
        {
          "internalType": "uint256",
          "name": "",
          "type": "uint256"
        }
      ],
      "name": "unverifiedOfficials",
      "outputs": [
        {
          "internalType": "address",
          "name": "",
          "type": "address"
        }
      ],
      "payable": false,
      "stateMutability": "view",
      "type": "function"
    },
    {
      "constant": false,
      "inputs": [
        {
          "internalType": "address",
          "name": "_address",
          "type": "address"
        },
        {
          "internalType": "string",
          "name": "_name",
          "type": "string"
        },
        {
          "internalType": "string",
          "name": "_govId",
          "type": "string"
        }
      ],
      "name": "addGovOfficial",
      "outputs": [],
      "payable": false,
      "stateMutability": "nonpayable",
      "type": "function"
    },
    {
      "constant": true,
      "inputs": [
        {
          "internalType": "address",
          "name": "_address",
          "type": "address"
        }
      ],
      "name": "getOfficial",
      "outputs": [
        {
          "internalType": "string",
          "name": "_name",
          "type": "string"
        },
        {
          "internalType": "string",
          "name": "_govId",
          "type": "string"
        }
      ],
      "payable": false,
      "stateMutability": "view",
      "type": "function"
    },
    {
      "constant": false,
      "inputs": [],
      "name": "getUnverifiedOfficials",
      "outputs": [
        {
          "internalType": "address[]",
          "name": "",
          "type": "address[]"
        }
      ],
      "payable": false,
      "stateMutability": "nonpayable",
      "type": "function"
    },
    {
      "constant": true,
      "inputs": [
        {
          "internalType": "address",
          "name": "_address",
          "type": "address"
        }
      ],
      "name": "getFarmerDetails",
      "outputs": [
        {
          "internalType": "string",
          "name": "_name",
          "type": "string"
        },
        {
          "internalType": "string",
          "name": "_stateOfResidence",
          "type": "string"
        },
        {
          "internalType": "string",
          "name": "_gender",
          "type": "string"
        },
        {
          "internalType": "uint256",
          "name": "_landOwned",
          "type": "uint256"
        },
        {
          "internalType": "bool",
          "name": "_isEligible",
          "type": "bool"
        }
      ],
      "payable": false,
      "stateMutability": "view",
      "type": "function"
    },
    {
      "constant": false,
      "inputs": [
        {
          "internalType": "address",
          "name": "_address",
          "type": "address"
        }
      ],
      "name": "setFarmerAsEligible",
      "outputs": [],
      "payable": false,
      "stateMutability": "nonpayable",
      "type": "function"
    },
    {
      "constant": false,
      "inputs": [
        {
          "internalType": "address",
          "name": "_address",
          "type": "address"
        }
      ],
      "name": "verifyOfficial",
      "outputs": [],
      "payable": false,
      "stateMutability": "nonpayable",
      "type": "function"
    }
  ],
  "bytecode": "0x608060405234801561001057600080fd5b50604051611dbc380380611dbc8339818101604052604081101561003357600080fd5b810190808051906020019092919080519060200190929190505050816000806101000a81548173ffffffffffffffffffffffffffffffffffffffff021916908373ffffffffffffffffffffffffffffffffffffffff16021790555080600160006101000a81548173ffffffffffffffffffffffffffffffffffffffff021916908373ffffffffffffffffffffffffffffffffffffffff1602179055505050611cdc806100e06000396000f3fe608060405234801561001057600080fd5b50600436106100a95760003560e01c806381f4be5e1161007157806381f4be5e14610332578063a024151c1461037c578063d335ccfa146103c0578063d9c2023614610567578063dfe8f55c146106d9578063fcf8b6ef14610747576100a9565b80630285199f146100ae5780630f72da6e146101d757806312f773321461023657806324a57a34146102805780635d2246c4146102ee575b600080fd5b6100f0600480360360208110156100c457600080fd5b81019080803573ffffffffffffffffffffffffffffffffffffffff169060200190929190505050610870565b604051808060200180602001838103835285818151815260200191508051906020019080838360005b83811015610134578082015181840152602081019050610119565b50505050905090810190601f1680156101615780820380516001836020036101000a031916815260200191505b50838103825284818151815260200191508051906020019080838360005b8381101561019a57808201518184015260208101905061017f565b50505050905090810190601f1680156101c75780820380516001836020036101000a031916815260200191505b5094505050505060405180910390f35b6101df6109c4565b6040518080602001828103825283818151815260200191508051906020019060200280838360005b83811015610222578082015181840152602081019050610207565b505050509050019250505060405180910390f35b61023e610c3b565b604051808273ffffffffffffffffffffffffffffffffffffffff1673ffffffffffffffffffffffffffffffffffffffff16815260200191505060405180910390f35b6102ac6004803603602081101561029657600080fd5b8101908080359060200190929190505050610c60565b604051808273ffffffffffffffffffffffffffffffffffffffff1673ffffffffffffffffffffffffffffffffffffffff16815260200191505060405180910390f35b6103306004803603602081101561030457600080fd5b81019080803573ffffffffffffffffffffffffffffffffffffffff169060200190929190505050610c9c565b005b61033a611171565b604051808273ffffffffffffffffffffffffffffffffffffffff1673ffffffffffffffffffffffffffffffffffffffff16815260200191505060405180910390f35b6103be6004803603602081101561039257600080fd5b81019080803573ffffffffffffffffffffffffffffffffffffffff169060200190929190505050611197565b005b610402600480360360208110156103d657600080fd5b81019080803573ffffffffffffffffffffffffffffffffffffffff1690602001909291905050506115c4565b6040518080602001806020018060200186815260200185151515158152602001848103845289818151815260200191508051906020019080838360005b8381101561045a57808201518184015260208101905061043f565b50505050905090810190601f1680156104875780820380516001836020036101000a031916815260200191505b50848103835288818151815260200191508051906020019080838360005b838110156104c05780820151818401526020810190506104a5565b50505050905090810190601f1680156104ed5780820380516001836020036101000a031916815260200191505b50848103825287818151815260200191508051906020019080838360005b8381101561052657808201518184015260208101905061050b565b50505050905090810190601f1680156105535780820380516001836020036101000a031916815260200191505b509850505050505050505060405180910390f35b6106d76004803603606081101561057d57600080fd5b81019080803573ffffffffffffffffffffffffffffffffffffffff169060200190929190803590602001906401000000008111156105ba57600080fd5b8201836020820111156105cc57600080fd5b803590602001918460018302840111640100000000831117156105ee57600080fd5b91908080601f016020809104026020016040519081016040528093929190818152602001838380828437600081840152601f19601f8201169050808301925050505050505091929192908035906020019064010000000081111561065157600080fd5b82018360208201111561066357600080fd5b8035906020019184600183028401116401000000008311171561068557600080fd5b91908080601f016020809104026020016040519081016040528093929190818152602001838380828437600081840152601f19601f8201169050808301925050505050505091929192905050506118fc565b005b610705600480360360208110156106ef57600080fd5b81019080803590602001909291905050506119dd565b604051808273ffffffffffffffffffffffffffffffffffffffff1673ffffffffffffffffffffffffffffffffffffffff16815260200191505060405180910390f35b6107896004803603602081101561075d57600080fd5b81019080803573ffffffffffffffffffffffffffffffffffffffff169060200190929190505050611a19565b604051808060200180602001838103835285818151815260200191508051906020019080838360005b838110156107cd5780820151818401526020810190506107b2565b50505050905090810190601f1680156107fa5780820380516001836020036101000a031916815260200191505b50838103825284818151815260200191508051906020019080838360005b83811015610833578082015181840152602081019050610818565b50505050905090810190601f1680156108605780820380516001836020036101000a031916815260200191505b5094505050505060405180910390f35b6002602052806000526040600020600091509050806000018054600181600116156101000203166002900480601f01602080910402602001604051908101604052809291908181526020018280546001816001161561010002031660029004801561091c5780601f106108f15761010080835404028352916020019161091c565b820191906000526020600020905b8154815290600101906020018083116108ff57829003601f168201915b505050505090806001018054600181600116156101000203166002900480601f0160208091040260200160405190810160405280929190818152602001828054600181600116156101000203166002900480156109ba5780601f1061098f576101008083540402835291602001916109ba565b820191906000526020600020905b81548152906001019060200180831161099d57829003601f168201915b5050505050905082565b6060600460006109d49190611be1565b6000809050600090505b600380549050811015610bae5760008060009054906101000a900473ffffffffffffffffffffffffffffffffffffffff1673ffffffffffffffffffffffffffffffffffffffff16634427673360038481548110610a3757fe5b9060005260206000200160009054906101000a900473ffffffffffffffffffffffffffffffffffffffff166040518263ffffffff1660e01b8152600401808273ffffffffffffffffffffffffffffffffffffffff1673ffffffffffffffffffffffffffffffffffffffff16815260200191505060206040518083038186803b158015610ac257600080fd5b505afa158015610ad6573d6000803e3d6000fd5b505050506040513d6020811015610aec57600080fd5b81019080805190602001909291905050501415610ba157600460038281548110610b1257fe5b9060005260206000200160009054906101000a900473ffffffffffffffffffffffffffffffffffffffff1690806001815401808255809150509060018203906000526020600020016000909192909190916101000a81548173ffffffffffffffffffffffffffffffffffffffff021916908373ffffffffffffffffffffffffffffffffffffffff160217905550505b80806001019150506109de565b6004805480602002602001604051908101604052809291908181526020018280548015610c3057602002820191906000526020600020905b8160009054906101000a900473ffffffffffffffffffffffffffffffffffffffff1673ffffffffffffffffffffffffffffffffffffffff1681526020019060010190808311610be6575b505050505091505090565b6000809054906101000a900473ffffffffffffffffffffffffffffffffffffffff1681565b60048181548110610c6d57fe5b906000526020600020016000915054906101000a900473ffffffffffffffffffffffffffffffffffffffff1681565b6000809054906101000a900473ffffffffffffffffffffffffffffffffffffffff1673ffffffffffffffffffffffffffffffffffffffff16638eb20e616040518163ffffffff1660e01b815260040160206040518083038186803b158015610d0357600080fd5b505afa158015610d17573d6000803e3d6000fd5b505050506040513d6020811015610d2d57600080fd5b81019080805190602001909291905050506000809054906101000a900473ffffffffffffffffffffffffffffffffffffffff1673ffffffffffffffffffffffffffffffffffffffff166344276733326040518263ffffffff1660e01b8152600401808273ffffffffffffffffffffffffffffffffffffffff1673ffffffffffffffffffffffffffffffffffffffff16815260200191505060206040518083038186803b158015610ddc57600080fd5b505afa158015610df0573d6000803e3d6000fd5b505050506040513d6020811015610e0657600080fd5b81019080805190602001909291905050501480610f9b57506000809054906101000a900473ffffffffffffffffffffffffffffffffffffffff1673ffffffffffffffffffffffffffffffffffffffff1663dfa8412b6040518163ffffffff1660e01b815260040160206040518083038186803b158015610e8557600080fd5b505afa158015610e99573d6000803e3d6000fd5b505050506040513d6020811015610eaf57600080fd5b81019080805190602001909291905050506000809054906101000a900473ffffffffffffffffffffffffffffffffffffffff1673ffffffffffffffffffffffffffffffffffffffff166344276733326040518263ffffffff1660e01b8152600401808273ffffffffffffffffffffffffffffffffffffffff1673ffffffffffffffffffffffffffffffffffffffff16815260200191505060206040518083038186803b158015610f5e57600080fd5b505afa158015610f72573d6000803e3d6000fd5b505050506040513d6020811015610f8857600080fd5b8101908080519060200190929190505050145b61100d576040517f08c379a000000000000000000000000000000000000000000000000000000000815260040180806020018281038252601a8152602001807f4f6e6c7920476f76206f6666696369616c206f722061646d696e00000000000081525060200191505060405180910390fd5b6000809054906101000a900473ffffffffffffffffffffffffffffffffffffffff1673ffffffffffffffffffffffffffffffffffffffff16637fde1c8a826000809054906101000a900473ffffffffffffffffffffffffffffffffffffffff1673ffffffffffffffffffffffffffffffffffffffff16638eb20e616040518163ffffffff1660e01b815260040160206040518083038186803b1580156110b257600080fd5b505afa1580156110c6573d6000803e3d6000fd5b505050506040513d60208110156110dc57600080fd5b81019080805190602001909291905050506040518363ffffffff1660e01b8152600401808373ffffffffffffffffffffffffffffffffffffffff1673ffffffffffffffffffffffffffffffffffffffff16815260200182815260200192505050600060405180830381600087803b15801561115657600080fd5b505af115801561116a573d6000803e3d6000fd5b5050505050565b600160009054906101000a900473ffffffffffffffffffffffffffffffffffffffff1681565b6000809054906101000a900473ffffffffffffffffffffffffffffffffffffffff1673ffffffffffffffffffffffffffffffffffffffff16638eb20e616040518163ffffffff1660e01b815260040160206040518083038186803b1580156111fe57600080fd5b505afa158015611212573d6000803e3d6000fd5b505050506040513d602081101561122857600080fd5b81019080805190602001909291905050506000809054906101000a900473ffffffffffffffffffffffffffffffffffffffff1673ffffffffffffffffffffffffffffffffffffffff166344276733326040518263ffffffff1660e01b8152600401808273ffffffffffffffffffffffffffffffffffffffff1673ffffffffffffffffffffffffffffffffffffffff16815260200191505060206040518083038186803b1580156112d757600080fd5b505afa1580156112eb573d6000803e3d6000fd5b505050506040513d602081101561130157600080fd5b8101908080519060200190929190505050148061149657506000809054906101000a900473ffffffffffffffffffffffffffffffffffffffff1673ffffffffffffffffffffffffffffffffffffffff1663dfa8412b6040518163ffffffff1660e01b815260040160206040518083038186803b15801561138057600080fd5b505afa158015611394573d6000803e3d6000fd5b505050506040513d60208110156113aa57600080fd5b81019080805190602001909291905050506000809054906101000a900473ffffffffffffffffffffffffffffffffffffffff1673ffffffffffffffffffffffffffffffffffffffff166344276733326040518263ffffffff1660e01b8152600401808273ffffffffffffffffffffffffffffffffffffffff1673ffffffffffffffffffffffffffffffffffffffff16815260200191505060206040518083038186803b15801561145957600080fd5b505afa15801561146d573d6000803e3d6000fd5b505050506040513d602081101561148357600080fd5b8101908080519060200190929190505050145b611508576040517f08c379a000000000000000000000000000000000000000000000000000000000815260040180806020018281038252601a8152602001807f4f6e6c7920476f76206f6666696369616c206f722061646d696e00000000000081525060200191505060405180910390fd5b600160009054906101000a900473ffffffffffffffffffffffffffffffffffffffff1673ffffffffffffffffffffffffffffffffffffffff1663f904cf04826040518263ffffffff1660e01b8152600401808273ffffffffffffffffffffffffffffffffffffffff1673ffffffffffffffffffffffffffffffffffffffff168152602001915050600060405180830381600087803b1580156115a957600080fd5b505af11580156115bd573d6000803e3d6000fd5b5050505050565b6060806060600080600160009054906101000a900473ffffffffffffffffffffffffffffffffffffffff1673ffffffffffffffffffffffffffffffffffffffff1663e7609c16876040518263ffffffff1660e01b8152600401808273ffffffffffffffffffffffffffffffffffffffff1673ffffffffffffffffffffffffffffffffffffffff16815260200191505060006040518083038186803b15801561166b57600080fd5b505afa15801561167f573d6000803e3d6000fd5b505050506040513d6000823e3d601f19601f8201168201806040525060a08110156116a957600080fd5b81019080805160405193929190846401000000008211156116c957600080fd5b838201915060208201858111156116df57600080fd5b82518660018202830111640100000000821117156116fc57600080fd5b8083526020830192505050908051906020019080838360005b83811015611730578082015181840152602081019050611715565b50505050905090810190601f16801561175d5780820380516001836020036101000a031916815260200191505b506040526020018051604051939291908464010000000082111561178057600080fd5b8382019150602082018581111561179657600080fd5b82518660018202830111640100000000821117156117b357600080fd5b8083526020830192505050908051906020019080838360005b838110156117e75780820151818401526020810190506117cc565b50505050905090810190601f1680156118145780820380516001836020036101000a031916815260200191505b506040526020018051604051939291908464010000000082111561183757600080fd5b8382019150602082018581111561184d57600080fd5b825186600182028301116401000000008211171561186a57600080fd5b8083526020830192505050908051906020019080838360005b8381101561189e578082015181840152602081019050611883565b50505050905090810190601f1680156118cb5780820380516001836020036101000a031916815260200191505b5060405260200180519060200190929190805190602001909291905050509450945094509450945091939590929450565b6000600260008573ffffffffffffffffffffffffffffffffffffffff1673ffffffffffffffffffffffffffffffffffffffff168152602001908152602001600020905082816000019080519060200190611957929190611c02565b5081816001019080519060200190611970929190611c02565b5060038490806001815401808255809150509060018203906000526020600020016000909192909190916101000a81548173ffffffffffffffffffffffffffffffffffffffff021916908373ffffffffffffffffffffffffffffffffffffffff1602179055505050505050565b600381815481106119ea57fe5b906000526020600020016000915054906101000a900473ffffffffffffffffffffffffffffffffffffffff1681565b606080600260008473ffffffffffffffffffffffffffffffffffffffff1673ffffffffffffffffffffffffffffffffffffffff168152602001908152602001600020600001600260008573ffffffffffffffffffffffffffffffffffffffff1673ffffffffffffffffffffffffffffffffffffffff168152602001908152602001600020600101818054600181600116156101000203166002900480601f016020809104026020016040519081016040528092919081815260200182805460018160011615610100020316600290048015611b355780601f10611b0a57610100808354040283529160200191611b35565b820191906000526020600020905b815481529060010190602001808311611b1857829003601f168201915b50505050509150808054600181600116156101000203166002900480601f016020809104026020016040519081016040528092919081815260200182805460018160011615610100020316600290048015611bd15780601f10611ba657610100808354040283529160200191611bd1565b820191906000526020600020905b815481529060010190602001808311611bb457829003601f168201915b5050505050905091509150915091565b5080546000825590600052602060002090810190611bff9190611c82565b50565b828054600181600116156101000203166002900490600052602060002090601f016020900481019282601f10611c4357805160ff1916838001178555611c71565b82800160010185558215611c71579182015b82811115611c70578251825591602001919060010190611c55565b5b509050611c7e9190611c82565b5090565b611ca491905b80821115611ca0576000816000905550600101611c88565b5090565b9056fea265627a7a72315820dc260b9c11111b026bca4a180b2a585ec594098f620f8550ec66de0db0a338f564736f6c63430005100032",
  "source": "pragma solidity >=0.4.21;\nimport \"./Roles.sol\";\nimport \"./FarmerContract.sol\";\n\ncontract GovContract {\n    Roles public rc;\n    FarmerContract public fc;\n\n    constructor(address _rcAddress, address _fcAddress) public {\n        rc = Roles(_rcAddress);\n        fc = FarmerContract(_fcAddress);\n    }\n\n    struct GovOfficial {\n        string name;\n        string govId;\n    }\n\n    mapping(address => GovOfficial) public govOfficials;\n    address[] public govOfficialAccounts;\n    address[] public unverifiedOfficials;\n\n    modifier OnlyGovernmentOfficial() {\n        require(\n            (rc.getRole(tx.origin) == rc.governmentOfficialRoleID() ||\n                rc.getRole(tx.origin) == rc.adminRoleID()),\n            \"Only Gov official or admin\"\n        );\n\n        _;\n    }\n\n    modifier OnlyAdmin() {\n        require(rc.getRole(tx.origin) == rc.adminRoleID(), \"Only admin\");\n\n        _;\n    }\n\n    function addGovOfficial(\n        address _address,\n        string memory _name,\n        string memory _govId\n    ) public {\n        GovOfficial storage govOfficial = govOfficials[_address];\n        govOfficial.name = _name;\n        govOfficial.govId = _govId;\n        govOfficialAccounts.push(_address);\n    }\n\n    function getOfficial(address _address)\n        public\n        view\n        returns (string memory _name, string memory _govId)\n    {\n        return (govOfficials[_address].name, govOfficials[_address].govId);\n    }\n\n    function getUnverifiedOfficials() public returns (address[] memory) {\n        delete unverifiedOfficials;\n        uint256 i = 0;\n\n        for (i = 0; i < govOfficialAccounts.length; i++) {\n            if (rc.getRole(govOfficialAccounts[i]) == 0) {\n                unverifiedOfficials.push(govOfficialAccounts[i]);\n            }\n        }\n\n        return unverifiedOfficials;\n    }\n\n    function getFarmerDetails(address _address)\n        public\n        view\n        returns (\n            string memory _name,\n            string memory _stateOfResidence,\n            string memory _gender,\n            uint256 _landOwned,\n            bool _isEligible\n        )\n    {\n        return fc.getFarmer(_address);\n    }\n\n    function setFarmerAsEligible(address _address)\n        public\n        OnlyGovernmentOfficial()\n    {\n        fc.setEligible(_address);\n    }\n\n    function verifyOfficial(address _address) public OnlyGovernmentOfficial() {\n        rc.addRole(_address, rc.governmentOfficialRoleID());\n    }\n}\n",
  "sourcePath": "/home/vaishakh/Desktop/Lectures/CS229/Project/farmers-incentive-dapp/contracts/GovContract.sol",
  "compiler": {
    "name": "solc",
    "version": "0.5.16+commit.9c3226ce.Emscripten.clang"
  },
  "schemaVersion": "3.3.4",
  "updatedAt": "2021-05-06T09:39:49.489Z",
  "networkType": "ethereum",
  "devdoc": {
    "methods": {}
  },
  "userdoc": {
    "methods": {}
  }
}