{
  "contractName": "PolicyContract",
  "abi": [
    {
      "inputs": [
        {
          "internalType": "address",
          "name": "_address",
          "type": "address"
        }
      ],
      "payable": false,
      "stateMutability": "nonpayable",
      "type": "constructor"
    },
    {
      "constant": true,
      "inputs": [
        {
          "internalType": "uint256",
          "name": "",
          "type": "uint256"
        }
      ],
      "name": "policies",
      "outputs": [
        {
          "internalType": "uint256",
          "name": "policyId",
          "type": "uint256"
        },
        {
          "internalType": "uint256",
          "name": "maxLandReq",
          "type": "uint256"
        },
        {
          "internalType": "string",
          "name": "gender",
          "type": "string"
        },
        {
          "internalType": "string",
          "name": "stateOfResidence",
          "type": "string"
        }
      ],
      "payable": false,
      "stateMutability": "view",
      "type": "function"
    },
    {
      "constant": true,
      "inputs": [
        {
          "internalType": "uint256",
          "name": "",
          "type": "uint256"
        }
      ],
      "name": "policyDetails",
      "outputs": [
        {
          "internalType": "uint256",
          "name": "",
          "type": "uint256"
        }
      ],
      "payable": false,
      "stateMutability": "view",
      "type": "function"
    },
    {
      "constant": true,
      "inputs": [],
      "name": "rc",
      "outputs": [
        {
          "internalType": "contract Roles",
          "name": "",
          "type": "address"
        }
      ],
      "payable": false,
      "stateMutability": "view",
      "type": "function"
    },
    {
      "constant": false,
      "inputs": [
        {
          "internalType": "uint256",
          "name": "_policyId",
          "type": "uint256"
        },
        {
          "internalType": "uint256",
          "name": "_maxLandReq",
          "type": "uint256"
        },
        {
          "internalType": "string",
          "name": "_gender",
          "type": "string"
        },
        {
          "internalType": "string",
          "name": "_stateOfResidence",
          "type": "string"
        }
      ],
      "name": "addPolicy",
      "outputs": [],
      "payable": true,
      "stateMutability": "payable",
      "type": "function"
    },
    {
      "constant": true,
      "inputs": [],
      "name": "getPolicies",
      "outputs": [
        {
          "internalType": "uint256[]",
          "name": "",
          "type": "uint256[]"
        }
      ],
      "payable": false,
      "stateMutability": "view",
      "type": "function"
    },
    {
      "constant": true,
      "inputs": [
        {
          "internalType": "uint256",
          "name": "_policyId",
          "type": "uint256"
        }
      ],
      "name": "getPolicy",
      "outputs": [
        {
          "internalType": "uint256",
          "name": "_maxLandReq",
          "type": "uint256"
        },
        {
          "internalType": "string",
          "name": "_gender",
          "type": "string"
        },
        {
          "internalType": "string",
          "name": "_stateOfResidence",
          "type": "string"
        }
      ],
      "payable": false,
      "stateMutability": "view",
      "type": "function"
    },
    {
      "constant": true,
      "inputs": [],
      "name": "countPolicies",
      "outputs": [
        {
          "internalType": "uint256",
          "name": "",
          "type": "uint256"
        }
      ],
      "payable": false,
      "stateMutability": "view",
      "type": "function"
    }
  ],
  "bytecode": "0x608060405234801561001057600080fd5b50604051610af8380380610af88339818101604052602081101561003357600080fd5b8101908080519060200190929190505050806000806101000a81548173ffffffffffffffffffffffffffffffffffffffff021916908373ffffffffffffffffffffffffffffffffffffffff16021790555050610a64806100946000396000f3fe6080604052600436106100705760003560e01c80633b04f6f11161004e5780633b04f6f1146102425780633f0023ae146102ae578063c012d7fa14610414578063d3e894831461043f57610070565b806312f7733214610075578063163f1b9a146100cc5780632b07fce31461011b575b600080fd5b34801561008157600080fd5b5061008a61056d565b604051808273ffffffffffffffffffffffffffffffffffffffff1673ffffffffffffffffffffffffffffffffffffffff16815260200191505060405180910390f35b3480156100d857600080fd5b50610105600480360360208110156100ef57600080fd5b8101908080359060200190929190505050610592565b6040518082815260200191505060405180910390f35b34801561012757600080fd5b506101546004803603602081101561013e57600080fd5b81019080803590602001909291905050506105b3565b604051808481526020018060200180602001838103835285818151815260200191508051906020019080838360005b8381101561019e578082015181840152602081019050610183565b50505050905090810190601f1680156101cb5780820380516001836020036101000a031916815260200191505b50838103825284818151815260200191508051906020019080838360005b838110156102045780820151818401526020810190506101e9565b50505050905090810190601f1680156102315780820380516001836020036101000a031916815260200191505b509550505050505060405180910390f35b34801561024e57600080fd5b50610257610740565b6040518080602001828103825283818151815260200191508051906020019060200280838360005b8381101561029a57808201518184015260208101905061027f565b505050509050019250505060405180910390f35b610412600480360360808110156102c457600080fd5b810190808035906020019092919080359060200190929190803590602001906401000000008111156102f557600080fd5b82018360208201111561030757600080fd5b8035906020019184600183028401116401000000008311171561032957600080fd5b91908080601f016020809104026020016040519081016040528093929190818152602001838380828437600081840152601f19601f8201169050808301925050505050505091929192908035906020019064010000000081111561038c57600080fd5b82018360208201111561039e57600080fd5b803590602001918460018302840111640100000000831117156103c057600080fd5b91908080601f016020809104026020016040519081016040528093929190818152602001838380828437600081840152601f19601f820116905080830192505050505050509192919290505050610798565b005b34801561042057600080fd5b5061042961081d565b6040518082815260200191505060405180910390f35b34801561044b57600080fd5b506104786004803603602081101561046257600080fd5b810190808035906020019092919050505061082a565b604051808581526020018481526020018060200180602001838103835285818151815260200191508051906020019080838360005b838110156104c85780820151818401526020810190506104ad565b50505050905090810190601f1680156104f55780820380516001836020036101000a031916815260200191505b50838103825284818151815260200191508051906020019080838360005b8381101561052e578082015181840152602081019050610513565b50505050905090810190601f16801561055b5780820380516001836020036101000a031916815260200191505b50965050505050505060405180910390f35b6000809054906101000a900473ffffffffffffffffffffffffffffffffffffffff1681565b6002818154811061059f57fe5b906000526020600020016000915090505481565b600060608060016000858152602001908152602001600020600101546001600086815260200190815260200160002060020160016000878152602001908152602001600020600301818054600181600116156101000203166002900480601f0160208091040260200160405190810160405280929190818152602001828054600181600116156101000203166002900480156106905780601f1061066557610100808354040283529160200191610690565b820191906000526020600020905b81548152906001019060200180831161067357829003601f168201915b50505050509150808054600181600116156101000203166002900480601f01602080910402602001604051908101604052809291908181526020018280546001816001161561010002031660029004801561072c5780601f106107015761010080835404028352916020019161072c565b820191906000526020600020905b81548152906001019060200180831161070f57829003601f168201915b505050505090509250925092509193909250565b6060600280548060200260200160405190810160405280929190818152602001828054801561078e57602002820191906000526020600020905b81548152602001906001019080831161077a575b5050505050905090565b6000600160008681526020019081526020016000209050838160010181905550828160020190805190602001906107d092919061098a565b50818160030190805190602001906107e992919061098a565b5060028590806001815401808255809150509060018203906000526020600020016000909192909190915055505050505050565b6000600280549050905090565b6001602052806000526040600020600091509050806000015490806001015490806002018054600181600116156101000203166002900480601f0160208091040260200160405190810160405280929190818152602001828054600181600116156101000203166002900480156108e25780601f106108b7576101008083540402835291602001916108e2565b820191906000526020600020905b8154815290600101906020018083116108c557829003601f168201915b505050505090806003018054600181600116156101000203166002900480601f0160208091040260200160405190810160405280929190818152602001828054600181600116156101000203166002900480156109805780601f1061095557610100808354040283529160200191610980565b820191906000526020600020905b81548152906001019060200180831161096357829003601f168201915b5050505050905084565b828054600181600116156101000203166002900490600052602060002090601f016020900481019282601f106109cb57805160ff19168380011785556109f9565b828001600101855582156109f9579182015b828111156109f85782518255916020019190600101906109dd565b5b509050610a069190610a0a565b5090565b610a2c91905b80821115610a28576000816000905550600101610a10565b5090565b9056fea265627a7a72315820e7f494eda5524c67ff41ee01fb444ba7f7ad9049bf66429cc5f5c179c4ec237e64736f6c63430005100032",
  "source": "// SPDX-License-Identifier: GPL-3.0\npragma solidity >=0.4.21;\nimport \"./Roles.sol\";\n\ncontract PolicyContract {\n    Roles public rc;\n\n    constructor(address _address) public {\n        rc = Roles(_address);\n    }\n\n    struct Policy {\n        uint256 policyId;\n        uint256 maxLandReq;\n        string gender;\n        string stateOfResidence;\n    }\n\n    mapping(uint256 => Policy) public policies;\n    uint256[] public policyDetails;\n\n    function addPolicy(\n        uint256 _policyId,\n        uint256 _maxLandReq,\n        string memory _gender,\n        string memory _stateOfResidence\n    ) public payable {\n        Policy storage policy = policies[_policyId];\n        policy.maxLandReq = _maxLandReq;\n        policy.gender = _gender;\n        policy.stateOfResidence = _stateOfResidence;\n\n        policyDetails.push(_policyId);\n\n        //rc.addRole(_address, rc.farmerRoleID());\n    }\n\n    function getPolicies() public view returns (uint256[] memory) {\n        return policyDetails;\n    }\n\n    function getPolicy(uint256 _policyId)\n        public\n        view\n        returns (\n            uint256 _maxLandReq,\n            string memory _gender,\n            string memory _stateOfResidence\n        )\n    {\n        return (\n            policies[_policyId].maxLandReq,\n            policies[_policyId].gender,\n            policies[_policyId].stateOfResidence\n        );\n    }\n\n    function countPolicies() public view returns (uint256) {\n        return policyDetails.length;\n    }\n}\n",
  "sourcePath": "/home/vaishakh/Desktop/Lectures/CS229/Project/farmers-incentive-dapp/contracts/PolicyContract.sol",
  "compiler": {
    "name": "solc",
    "version": "0.5.16+commit.9c3226ce.Emscripten.clang"
  },
  "schemaVersion": "3.3.4",
  "updatedAt": "2021-04-23T09:21:06.469Z",
  "networkType": "ethereum",
  "devdoc": {
    "methods": {}
  },
  "userdoc": {
    "methods": {}
  }
}