{
  "contractName": "Policy_2",
  "abi": [
    {
      "inputs": [
        {
          "internalType": "address",
          "name": "_fcAddress",
          "type": "address"
        }
      ],
      "payable": false,
      "stateMutability": "nonpayable",
      "type": "constructor"
    },
    {
      "constant": true,
      "inputs": [],
      "name": "fc",
      "outputs": [
        {
          "internalType": "contract FarmerContract",
          "name": "",
          "type": "address"
        }
      ],
      "payable": false,
      "stateMutability": "view",
      "type": "function"
    },
    {
      "constant": true,
      "inputs": [
        {
          "internalType": "address",
          "name": "_farmerAddress",
          "type": "address"
        }
      ],
      "name": "isEligible",
      "outputs": [
        {
          "internalType": "bool",
          "name": "",
          "type": "bool"
        }
      ],
      "payable": false,
      "stateMutability": "view",
      "type": "function"
    },
    {
      "constant": true,
      "inputs": [],
      "name": "description",
      "outputs": [
        {
          "internalType": "string",
          "name": "_description",
          "type": "string"
        },
        {
          "internalType": "uint256",
          "name": "_policyID",
          "type": "uint256"
        }
      ],
      "payable": false,
      "stateMutability": "view",
      "type": "function"
    },
    {
      "constant": false,
      "inputs": [],
      "name": "fund",
      "outputs": [],
      "payable": true,
      "stateMutability": "payable",
      "type": "function"
    },
    {
      "constant": false,
      "inputs": [
        {
          "internalType": "address payable",
          "name": "recipient",
          "type": "address"
        }
      ],
      "name": "action",
      "outputs": [],
      "payable": false,
      "stateMutability": "nonpayable",
      "type": "function"
    }
  ],
  "bytecode": "0x60806040526130a3600155606460025534801561001b57600080fd5b5060405161071a38038061071a8339818101604052602081101561003e57600080fd5b8101908080519060200190929190505050806000806101000a81548173ffffffffffffffffffffffffffffffffffffffff021916908373ffffffffffffffffffffffffffffffffffffffff1602179055505061067b8061009f6000396000f3fe60806040526004361061004a5760003560e01c806366e305fd1461004f578063721b8e01146100b85780637284e4161461010957806381f4be5e146101a0578063b60d4288146101f7575b600080fd5b34801561005b57600080fd5b5061009e6004803603602081101561007257600080fd5b81019080803573ffffffffffffffffffffffffffffffffffffffff169060200190929190505050610201565b604051808215151515815260200191505060405180910390f35b3480156100c457600080fd5b50610107600480360360208110156100db57600080fd5b81019080803573ffffffffffffffffffffffffffffffffffffffff169060200190929190505050610561565b005b34801561011557600080fd5b5061011e6105b3565b6040518080602001838152602001828103825284818151815260200191508051906020019080838360005b83811015610164578082015181840152602081019050610149565b50505050905090810190601f1680156101915780820380516001836020036101000a031916815260200191505b50935050505060405180910390f35b3480156101ac57600080fd5b506101b56105dc565b604051808273ffffffffffffffffffffffffffffffffffffffff1673ffffffffffffffffffffffffffffffffffffffff16815260200191505060405180910390f35b6101ff610601565b005b600060608060606000806000809054906101000a900473ffffffffffffffffffffffffffffffffffffffff1673ffffffffffffffffffffffffffffffffffffffff1663e7609c16886040518263ffffffff1660e01b8152600401808273ffffffffffffffffffffffffffffffffffffffff1673ffffffffffffffffffffffffffffffffffffffff16815260200191505060006040518083038186803b1580156102a957600080fd5b505afa1580156102bd573d6000803e3d6000fd5b505050506040513d6000823e3d601f19601f8201168201806040525060a08110156102e757600080fd5b810190808051604051939291908464010000000082111561030757600080fd5b8382019150602082018581111561031d57600080fd5b825186600182028301116401000000008211171561033a57600080fd5b8083526020830192505050908051906020019080838360005b8381101561036e578082015181840152602081019050610353565b50505050905090810190601f16801561039b5780820380516001836020036101000a031916815260200191505b50604052602001805160405193929190846401000000008211156103be57600080fd5b838201915060208201858111156103d457600080fd5b82518660018202830111640100000000821117156103f157600080fd5b8083526020830192505050908051906020019080838360005b8381101561042557808201518184015260208101905061040a565b50505050905090810190601f1680156104525780820380516001836020036101000a031916815260200191505b506040526020018051604051939291908464010000000082111561047557600080fd5b8382019150602082018581111561048b57600080fd5b82518660018202830111640100000000821117156104a857600080fd5b8083526020830192505050908051906020019080838360005b838110156104dc5780820151818401526020810190506104c1565b50505050905090810190601f1680156105095780820380516001836020036101000a031916815260200191505b506040526020018051906020019092919080519060200190929190505050809550819650829750839850849950505050505060328210156105525760019550505050505061055c565b6000955050505050505b919050565b8073ffffffffffffffffffffffffffffffffffffffff166108fc671bc16d674ec800009081150290604051600060405180830381858888f193505050501580156105af573d6000803e3d6000fd5b5050565b606060006001546040518060800160405280604381526020016106046043913990915091509091565b6000809054906101000a900473ffffffffffffffffffffffffffffffffffffffff1681565b56fe596f752061726520656c696769626c6520666f72204b6973616e20796f6a616e6120736368656d652c20796f752068617665206c616e64206c657373207468616e2039a265627a7a72315820af572408fea914766af1164586c26bed7394cb38a5c2fff525a46389a491aac864736f6c63430005100032",
  "source": "// SPDX-License-Identifier: GPL-3.0\npragma solidity >=0.4.21;\nimport \"./FarmerContract.sol\";\n\n/*\n\n Step 1\n    The contract must contain 3 functions\n    \"isEligible\" to check if farmer is eligible for the contract\n    \"description\" to determine what is to be shown on screen\n    \"execution\" to perform desired actions on the farmer, including transfer of ETH etc.\n\n Step 2\n    Create the appropriate deploy script for your contract and deploy your contract.\n\n Step 3\n    Add your contract abi, address in RegisteredContracts.\n\n Step 4\n    You are done! Eligible farmers can now see your contract.\n\n*/\n\ncontract Policy_2 {\n    FarmerContract public fc;\n\n    // ID number of your policy\n    uint256 policyID = 12451;\n    uint256 policyTransferAmount = 100;\n\n    constructor(address _fcAddress) public {\n        fc = FarmerContract(_fcAddress);\n    }\n\n    // Code to check if farmer is eligible for the policy\n    function isEligible(address _farmerAddress) public view returns (bool) {\n        string memory _name;\n        string memory _stateOfResidence;\n        string memory _gender;\n        uint256 _landOwned;\n        bool isVerified;\n\n        (_name, _stateOfResidence, _gender, _landOwned, isVerified) = fc\n            .getFarmer(_farmerAddress);\n\n        if (_landOwned < 50) return true;\n        return false;\n    }\n\n    // Description of policy (what should be shown on screen)\n    function description()\n        public\n        view\n        returns (string memory _description, uint256 _policyID)\n    {\n        return (\n            \"You are eligible for Kisan yojana scheme, you have land less than 9\",\n            policyID\n        );\n    }\n\n    // Fund (To fund the smart contract)\n    function fund() external payable {}\n\n    // Execution (Transfer of money etc)\n    function action(address payable recipient) external {\n        recipient.transfer(2 ether);\n    }\n}\n",
  "sourcePath": "D:/React Apps/farmers-incentive-dapp/contracts/Policy_2.sol",
  "compiler": {
    "name": "solc",
    "version": "0.5.16+commit.9c3226ce.Emscripten.clang"
  },
  "schemaVersion": "3.3.3",
  "updatedAt": "2021-06-17T09:26:05.785Z",
  "networkType": "ethereum",
  "devdoc": {
    "methods": {}
  },
  "userdoc": {
    "methods": {}
  }
}