{
  "contractName": "Roles",
  "abi": [
    {
      "constant": true,
      "inputs": [],
      "name": "farmerRoleID",
      "outputs": [
        {
          "internalType": "uint256",
          "name": "",
          "type": "uint256"
        }
      ],
      "payable": false,
      "stateMutability": "view",
      "type": "function"
    },
    {
      "constant": true,
      "inputs": [],
      "name": "governmentOfficialRoleID",
      "outputs": [
        {
          "internalType": "uint256",
          "name": "",
          "type": "uint256"
        }
      ],
      "payable": false,
      "stateMutability": "view",
      "type": "function"
    },
    {
      "constant": false,
      "inputs": [
        {
          "internalType": "address",
          "name": "_address",
          "type": "address"
        },
        {
          "internalType": "uint256",
          "name": "_RoleID",
          "type": "uint256"
        }
      ],
      "name": "addRole",
      "outputs": [],
      "payable": false,
      "stateMutability": "nonpayable",
      "type": "function"
    },
    {
      "constant": true,
      "inputs": [
        {
          "internalType": "address",
          "name": "_address",
          "type": "address"
        }
      ],
      "name": "getRole",
      "outputs": [
        {
          "internalType": "uint256",
          "name": "",
          "type": "uint256"
        }
      ],
      "payable": false,
      "stateMutability": "view",
      "type": "function"
    }
  ],
  "bytecode": "0x608060405234801561001057600080fd5b50610244806100206000396000f3fe608060405234801561001057600080fd5b506004361061004c5760003560e01c806344276733146100515780637fde1c8a146100a95780638eb20e61146100f7578063b67ac87314610115575b600080fd5b6100936004803603602081101561006757600080fd5b81019080803573ffffffffffffffffffffffffffffffffffffffff169060200190929190505050610133565b6040518082815260200191505060405180910390f35b6100f5600480360360408110156100bf57600080fd5b81019080803573ffffffffffffffffffffffffffffffffffffffff1690602001909291908035906020019092919050505061017e565b005b6100ff610205565b6040518082815260200191505060405180910390f35b61011d61020a565b6040518082815260200191505060405180910390f35b60008060008373ffffffffffffffffffffffffffffffffffffffff1673ffffffffffffffffffffffffffffffffffffffff168152602001908152602001600020600001549050919050565b6040518060400160405280828152602001600115158152506000808473ffffffffffffffffffffffffffffffffffffffff1673ffffffffffffffffffffffffffffffffffffffff1681526020019081526020016000206000820151816000015560208201518160010160006101000a81548160ff0219169083151502179055509050505050565b600281565b60018156fea265627a7a723158201869db01cbe1010d88273d39555cb3b24712c098cfcead2de7ef2e337e6d9f3064736f6c63430005100032",
  "source": "// SPDX-License-Identifier: GPL-3.0\n\npragma solidity >=0.4.21;\n\ncontract Roles {\n    uint256 public constant farmerRoleID = 1;\n    uint256 public constant governmentOfficialRoleID = 2;\n\n    struct Role {\n        uint256 roleID;\n        bool roleSet;\n    }\n\n    mapping(address => Role) role;\n\n    function addRole(address _address, uint256 _RoleID) public {\n        role[_address] = Role(_RoleID, true);\n    }\n\n    function getRole(address _address) public view returns (uint256) {\n        return role[_address].roleID;\n    }\n}\n",
  "sourcePath": "/home/vaishakh/Desktop/Lectures/CS229/Project/farmers-incentive-dapp/contracts/Roles.sol",
  "compiler": {
    "name": "solc",
    "version": "0.5.16+commit.9c3226ce.Emscripten.clang"
  },
  "schemaVersion": "3.3.4",
  "updatedAt": "2021-03-24T12:00:38.579Z",
  "networkType": "ethereum",
  "devdoc": {
    "methods": {}
  },
  "userdoc": {
    "methods": {}
  }
}