{
  "contractName": "Roles",
  "abi": [
    {
      "inputs": [],
      "payable": false,
      "stateMutability": "nonpayable",
      "type": "constructor"
    },
    {
      "constant": true,
      "inputs": [],
      "name": "adminRoleID",
      "outputs": [
        {
          "internalType": "uint256",
          "name": "",
          "type": "uint256"
        }
      ],
      "payable": false,
      "stateMutability": "view",
      "type": "function"
    },
    {
      "constant": true,
      "inputs": [],
      "name": "farmerRoleID",
      "outputs": [
        {
          "internalType": "uint256",
          "name": "",
          "type": "uint256"
        }
      ],
      "payable": false,
      "stateMutability": "view",
      "type": "function"
    },
    {
      "constant": true,
      "inputs": [],
      "name": "governmentOfficialRoleID",
      "outputs": [
        {
          "internalType": "uint256",
          "name": "",
          "type": "uint256"
        }
      ],
      "payable": false,
      "stateMutability": "view",
      "type": "function"
    },
    {
      "constant": false,
      "inputs": [
        {
          "internalType": "address",
          "name": "_address",
          "type": "address"
        },
        {
          "internalType": "uint256",
          "name": "_RoleID",
          "type": "uint256"
        }
      ],
      "name": "addRole",
      "outputs": [],
      "payable": false,
      "stateMutability": "nonpayable",
      "type": "function"
    },
    {
      "constant": true,
      "inputs": [
        {
          "internalType": "address",
          "name": "_address",
          "type": "address"
        }
      ],
      "name": "getRole",
      "outputs": [
        {
          "internalType": "uint256",
          "name": "",
          "type": "uint256"
        }
      ],
      "payable": false,
      "stateMutability": "view",
      "type": "function"
    },
    {
      "constant": false,
      "inputs": [
        {
          "internalType": "address",
          "name": "_address",
          "type": "address"
        },
        {
          "internalType": "uint256",
          "name": "_RoleID",
          "type": "uint256"
        }
      ],
      "name": "deleteRole",
      "outputs": [],
      "payable": false,
      "stateMutability": "nonpayable",
      "type": "function"
    }
  ],
  "bytecode": "0x608060405234801561001057600080fd5b50604051806040016040528060038152602001600115158152506000803273ffffffffffffffffffffffffffffffffffffffff1673ffffffffffffffffffffffffffffffffffffffff1681526020019081526020016000206000820151816000015560208201518160010160006101000a81548160ff0219169083151502179055509050506105ef806100a46000396000f3fe608060405234801561001057600080fd5b50600436106100625760003560e01c806344276733146100675780637fde1c8a146100bf5780638eb20e611461010d578063b67ac8731461012b578063dfa8412b14610149578063fb49193b14610167575b600080fd5b6100a96004803603602081101561007d57600080fd5b81019080803573ffffffffffffffffffffffffffffffffffffffff1690602001909291905050506101b5565b6040518082815260200191505060405180910390f35b61010b600480360360408110156100d557600080fd5b81019080803573ffffffffffffffffffffffffffffffffffffffff16906020019092919080359060200190929190505050610265565b005b61011561042e565b6040518082815260200191505060405180910390f35b610133610433565b6040518082815260200191505060405180910390f35b610151610438565b6040518082815260200191505060405180910390f35b6101b36004803603604081101561017d57600080fd5b81019080803573ffffffffffffffffffffffffffffffffffffffff1690602001909291908035906020019092919050505061043d565b005b6000600115156000808473ffffffffffffffffffffffffffffffffffffffff1673ffffffffffffffffffffffffffffffffffffffff16815260200190815260200160002060010160009054906101000a900460ff161515141561025b576000808373ffffffffffffffffffffffffffffffffffffffff1673ffffffffffffffffffffffffffffffffffffffff168152602001908152602001600020600001549050610260565b600090505b919050565b60026000803273ffffffffffffffffffffffffffffffffffffffff1673ffffffffffffffffffffffffffffffffffffffff1681526020019081526020016000206000015414806102f6575060036000803273ffffffffffffffffffffffffffffffffffffffff1673ffffffffffffffffffffffffffffffffffffffff16815260200190815260200160002060000154145b61034b576040517f08c379a000000000000000000000000000000000000000000000000000000000815260040180806020018281038252602181526020018061059a6021913960400191505060405180910390fd5b600015156000808473ffffffffffffffffffffffffffffffffffffffff1673ffffffffffffffffffffffffffffffffffffffff16815260200190815260200160002060010160009054906101000a900460ff161515141561042a576040518060400160405280828152602001600115158152506000808473ffffffffffffffffffffffffffffffffffffffff1673ffffffffffffffffffffffffffffffffffffffff1681526020019081526020016000206000820151816000015560208201518160010160006101000a81548160ff0219169083151502179055509050505b5050565b600281565b600181565b600381565b60036000803273ffffffffffffffffffffffffffffffffffffffff1673ffffffffffffffffffffffffffffffffffffffff16815260200190815260200160002060000154146104f4576040517f08c379a000000000000000000000000000000000000000000000000000000000815260040180806020018281038252600a8152602001807f4f6e6c792061646d696e0000000000000000000000000000000000000000000081525060200191505060405180910390fd5b60008060008473ffffffffffffffffffffffffffffffffffffffff1673ffffffffffffffffffffffffffffffffffffffff16815260200190815260200160002060010160006101000a81548160ff02191690831515021790555060008060008473ffffffffffffffffffffffffffffffffffffffff1673ffffffffffffffffffffffffffffffffffffffff16815260200190815260200160002060000181905550505056fe4f6e6c7920676f7665726e6d656e74206f6666696369616c206f722061646d696ea265627a7a723158201e48a04ac99e57736d286758999487c88134d590baa9f26f3336b936ce10f09964736f6c63430005100032",
  "source": "// SPDX-License-Identifier: GPL-3.0\n\npragma solidity >=0.4.21;\n\ncontract Roles {\n    uint256 public constant farmerRoleID = 1;\n    uint256 public constant governmentOfficialRoleID = 2;\n    uint256 public constant adminRoleID = 3;\n\n    struct Role {\n        uint256 roleID;\n        bool roleSet;\n    }\n\n    constructor() public {\n        role[tx.origin] = Role(adminRoleID, true);\n    }\n\n    mapping(address => Role) role;\n\n    modifier OnlyGovernmentOfficial() {\n        require(\n            ((role[tx.origin].roleID == governmentOfficialRoleID) ||\n                role[tx.origin].roleID == adminRoleID),\n            \"Only government official or admin\"\n        );\n\n        _;\n    }\n\n    modifier OnlyAdmin() {\n        require((role[tx.origin].roleID == adminRoleID), \"Only admin\");\n\n        _;\n    }\n\n    function addRole(address _address, uint256 _RoleID)\n        public\n        OnlyGovernmentOfficial()\n    {\n        if (role[_address].roleSet == false)\n            role[_address] = Role(_RoleID, true);\n    }\n\n    function getRole(address _address) public view returns (uint256) {\n        if (role[_address].roleSet == true) return role[_address].roleID;\n        else return 0;\n    }\n\n    function deleteRole(address _address, uint256 _RoleID) public OnlyAdmin() {\n        role[_address].roleSet = false;\n        role[_address].roleID = 0;\n    }\n}\n",
  "sourcePath": "D:\\React Apps\\farmers-incentive-dapp\\contracts\\Roles.sol",
  "compiler": {
    "name": "solc",
    "version": "0.5.16+commit.9c3226ce.Emscripten.clang"
  },
  "schemaVersion": "3.3.3",
  "updatedAt": "2021-06-17T09:26:04.003Z",
  "networkType": "ethereum",
  "devdoc": {
    "methods": {}
  },
  "userdoc": {
    "methods": {}
  }
}